S0120000626C696E6B79626F6F742E73726563D5
S3150800000000000220790B0008F90A0008FF0A000818
S31508000010050B00080B0B0008110B00080000000078
S31508000020000000000000000000000000170B000898
S31508000030250B000800000000330B0008410B0008E0
S31508000040C90B0008C90B0008C90B0008C90B000832
S31508000050C90B0008C90B0008C90B0008C90B000822
S31508000060C90B0008C90B0008C90B0008C90B000812
S31508000070C90B0008C90B0008C90B0008C90B000802
S31508000080C90B0008C90B0008C90B0008C90B0008F2
S31508000090C90B0008C90B0008C90B0008C90B0008E2
S315080000A0C90B0008C90B0008C90B0008C90B0008D2
S315080000B0C90B0008C90B0008C90B0008C90B0008C2
S315080000C0C90B0008C90B0008C90B0008C90B0008B2
S315080000D0C90B0008C90B0008C90B0008C90B0008A2
S315080000E0C90B0008C90B0008C90B0008C90B000892
S315080000F0C90B0008C90B0008C90B0008C90B000882
S31508000100C90B0008C90B0008C90B0008C90B000871
S31508000110C90B0008C90B0008C90B0008C90B000861
S31508000120C90B0008C90B0008C90B0008C90B000851
S31508000130C90B0008C90B0008C90B0008C90B000841
S31508000140C90B0008C90B0008C90B0008C90B000831
S31508000150C90B0008C90B0008C90B0008C90B000821
S31508000160C90B0008C90B0008C90B0008C90B000811
S31508000170C90B0008C90B0008C90B000800000000DD
S30D08000180C90B0008C90B0008B1
S3150800018810B5054C237833B9044B13B10448AFF3BB
S3150800019800800123237010BD0C0000200000000019
S315080001A8B826000808B5034B1BB103490348AFF343
S315080001B8008008BD0000000010000020B8260008CE
S315080001C853B94AB9002908BF00281CBF4FF0FF31A8
S315080001D84FF0FF3000F072B9ADF1080C6DE904CEA6
S315080001E800F006F8DDF804E0DDE9022304B07047FC
S315080001F82DE9F047089E04468846002B4BD18A42CB
S31508000208154667D9B2FA82F24AB1C2F1200701FA4D
S3150800021802F320FA07F7954047EA030894404FEA9D
S31508000228154E230CB8FBFEF71FFA85FC0EFB17883C
S3150800023843EA084307FB0CF1994209D9EB1807F179
S31508000248FF3080F01B81994240F21881023F2B4407
S315080002585B1AA4B2B3FBFEF00EFB103344EA034460
S3150800026800FB0CFCA44509D92C1900F1FF3380F0D2
S315080002780781A44540F2048102382C4440EA074025
S31508000288A4EB0C0400271EB1D4400023C6E900439A
S315080002983946BDE8F0878B4209D9002E00F0EB8075
S315080002A80027C6E9000138463946BDE8F087B3FA9B
S315080002B883F7002F47D18B4202D3824200F2FA8095
S315080002C8841A61EB030301209846002EE0D0C6E99C
S315080002D80048DDE702B9FFDEB2FA82F2002A40F0EA
S315080002E88F80491B4FEA154E1FFA85F80127B1FB7F
S315080002F8FEFC230C0EFB1C1143EA014308FB0CF118
S31508000308994207D9EB180CF1FF3002D2994200F24C
S31508000318CD808446591AA3B2B1FBFEF00EFB101421
S3150800032843EA044408FB00F8A04507D92C1900F14C
S31508000338FF3302D2A04500F2B6801846A4EB08049B
S3150800034840EA0C409FE7C7F1200CBB4022FA0CFE96
S315080003584EEA030E01FA07F420FA0CF521FA0CF313
S315080003684FEA1E482543B3FBF8F92C0C08FB19334A
S315080003781FFA8EFA44EA034309FB0AF49C4202FA76
S3150800038807F200FA07F10BD91EEB030309F1FF3050
S3150800039880F087809C4240F28480A9F10209734460
S315080003A81B1BADB2B3FBF8F008FB103345EA034450
S315080003B800FB0AFAA24508D91EEB040400F1FF332C
S315080003C86BD2A24569D90238744440EA0940A0FBB1
S315080003D80289A4EB0A044C45C2464B4654D351D06D
S315080003E8002E69D0B1EB0A0564EB030404FA0CFC89
S315080003F8FD40FC404CEA0505C6E90054002747E7D6
S31508000408C2F1200320FA03F7954001FA02F021FA0F
S3150800041803F34FEA154E3843010CB3FBFEF71FFAF0
S3150800042885F80EFB173341EA034107FB08F38B42AD
S3150800043804FA02F407D9691807F1FF3C2FD28B4250
S315080004482DD9023F2944CB1A81B2B3FBFEF00EFB25
S31508000458103341EA034100FB08F38B4207D96918B0
S3150800046800F1FF3C17D28B4215D902382944C91A1C
S3150800047840EA07473BE73746304609E70746E7E6CF
S315080004881846FBE64145ABD2B8EB020A69EB0E0201
S3150800049801381346A4E76046E9E7184695E767462C
S315080004A8D1E781467CE702382C4447E7ACF1020CD1
S315080004B82B442FE7384608E73746E9E6704700BF72
S315080004C880B500AF00F07EFB00F014F800F0A6F83F
S315080004D800F07AF80121064800F088FE0346012B49
S315080004E802D100F04FF9F5E700F068F9F2E700BF26
S315080004F80000024080B594B000AF07F1200330220F
S315080005080021184602F0CCF807F10C0300221A60FD
S315080005185A609A60DA601A610023BB60284B1B6C24
S31508000528274A43F080531364254B1B6C03F080530A
S31508000538BB60BB6800237B60224B1B68214A43F4D7
S31508000548804313601F4B1B6803F480437B607B68FA
S3150800055801233B624FF480337B620223BB634FF46B
S315080005688003FB6308233B644FF4A8737B64022368
S31508000578BB640723FB6407F12003184600F082FED4
S315080005880346002B01D000F03FFA0F23FB60022335
S315080005983B6100237B614FF4A053BB614FF4805342
S315080005A8FB6107F10C030521184601F0DBF8034641
S315080005B8002B01D000F028FA00BF5037BD4680BD91
S315080005C8003802400070004080B500AF114B124A4F
S315080005D81A60104B4FF4E1325A600E4B00229A60AB
S315080005E80C4B0022DA600B4B00221A61094B0C22CD
S315080005F85A61084B00229A61064B0022DA610548BF
S3150800060801F070FB0346002B01D000F0FDF900BF8E
S3150800061880BD00BF2C0000200048004080B58CB083
S3150800062800AF07F11C0300221A605A609A60DA6064
S315080006381A610023BB614D4B1B6B4C4A43F00403FC
S3150800064813634A4B1B6B03F00403BB61BB690023A6
S315080006587B61464B1B6B454A43F080031363434B48
S315080006681B6B03F080037B617B6900233B613F4B6F
S315080006781B6B3E4A43F0010313633C4B1B6B03F0A9
S3150800068801033B613B690023FB60384B1B6B374A08
S3150800069843F002031363354B1B6B03F00203FB603D
S315080006A8FB680023BB60314B1B6B304A43F00803D9
S315080006B813632E4B1B6B03F00803BB60BB68002350
S315080006C87B602A4B1B6B294A43F010031363274B9D
S315080006D81B6B03F010037B607B6800224FF2100146
S315080006E8234800F09BFD0123FB61224B3B62002354
S315080006F87B6207F11C0319461F4800F0DDFB04233B
S31508000708FB6100233B6200237B6207F11C03194641
S315080007181A4800F0D1FB4FF21003FB6101233B6234
S3150800072800237B620023BB6207F11C0319461048A5
S3150800073800F0C2FB2023FB6100233B6200237B6297
S3150800074807F11C0319460A4800F0B6FB0223FB61A9
S31508000758084B3B6200237B6207F11C0319460848CD
S3150800076800F0AAFB00BF3037BD4680BD00380240FE
S31508000778000C02400000121000000240000402406B
S315080007880010024080B584B000AF0A4B1B68FB60B6
S31508000798094B1B68BB60BB687B6001F0D5F9FB6831
S315080007A83B603B6883F308887B68984700BF103727
S315080007B8BD4680BD008000080480000880B500AFEB
S315080007C84FF400514F4800F042FD642000F06CFADF
S315080007D84FF400514B4800F03AFD4FF48051494810
S315080007E800F035FD642000F05FFA4FF48051454863
S315080007F800F02DFD4FF40041424800F028FD642022
S3150800080800F052FA4FF400413E4800F020FD4FF43C
S3150800081880413C4800F01BFD642000F045FA4FF47F
S315080008288041384800F013FDC8220021364801F0F7
S3150800083837FF4FF0FF3301223349344801F09FFA56
S31508000848314B1A78324B1A70314B1B789AB24FF0E3
S31508000858FF3330492D4801F092FA2B4B5B78513B10
S315080008680B2B4BD801A252F823F000BFA5080008A5
S31508000878AD080008B5080008BD080008C50800083E
S31508000888CD080008D5080008DD080008E5080008AE
S31508000898ED080008F5080008FD0800081A4800F0E1
S315080008A83BF82CE0184800F041F828E0164800F014
S315080008B847F824E0144800F04DF820E0124800F004
S315080008C853F81CE0104800F059F818E00E4800F0F4
S315080008D85FF814E00C4800F065F810E00A4800F0E4
S315080008E86BF80CE0084800F071F808E0064800F0D4
S315080008F877F804E0044800F07DF800E000BF00BF80
S3150800090880BD00BF000C02406C0000202C000020AF
S31508000918280000206D00002080B483B000AF7860FE
S3150800092800BF0C37BD465DF8047B704780B483B0BA
S3150800093800AF786000BF0C37BD465DF8047B70478A
S3150800094880B483B000AF786000BF0C37BD465DF849
S31508000958047B704780B483B000AF786000BF0C375B
S31508000968BD465DF8047B704780B483B000AF7860F5
S3150800097800BF0C37BD465DF8047B704780B483B06A
S3150800098800AF786000BF0C37BD465DF8047B70473A
S3150800099880B483B000AF786000BF0C37BD465DF8F9
S315080009A8047B704780B483B000AF786000BF0C370B
S315080009B8BD465DF8047B704780B483B000AF7860A5
S315080009C800BF0C37BD465DF8047B704780B483B01A
S315080009D800AF786000BF0C37BD465DF8047B7047EA
S315080009E880B483B000AF786000BF0C37BD465DF8A9
S315080009F8047B704780B483B000AF786000BF0C37BB
S31508000A08BD465DF8047B704780B400AF72B6FEE752
S31508000A1880B582B000AF00237B60104B5B6C0F4A31
S31508000A2843F4804353640D4B5B6C03F480437B604B
S31508000A387B6800233B60094B1B6C084A43F08053CC
S31508000A481364064B1B6C03F080533B603B68072016
S31508000A5800F0FEF900BF0837BD4680BD00380240E1
S31508000A6880B58AB000AF786007F1140300221A60CF
S31508000A785A609A60DA601A617B681B68194A934259
S31508000A882CD100233B61184B1B6C174A43F480236F
S31508000A981364154B1B6C03F480233B613B690023E5
S31508000AA8FB60114B1B6B104A43F0020313630E4B92
S31508000AB81B6B03F00203FB60FB684FF440637B6122
S31508000AC80223BB610023FB6103233B6207237B6286
S31508000AD807F114031946054800F0EEF900BF283750
S31508000AE8BD4680BD00480040003802400004024068
S31508000AF880B400AFFEE780B400AFFEE780B400AF6D
S31508000B08FEE780B400AFFEE780B400AFFEE780B426
S31508000B1800AF00BFBD465DF8047B704780B400AFE0
S31508000B2800BFBD465DF8047B704780B400AF00BFC0
S31508000B38BD465DF8047B704780B500AF00F094F8B1
S31508000B4800BF80BD80B400AF084BD3F88830074A89
S31508000B5843F47003C2F88830044B4FF000629A6079
S31508000B6800BFBD465DF8047B704700BF00ED00E096
S31508000B78DFF834D0002103E00C4B5B5843500431AE
S31508000B880B480C4B42189A42F6D30B4A02E000234C
S31508000B9842F8043B094B9A42F9D3FFF7D3FF01F011
S31508000BA85BFDFFF78DFC704700000220F826000859
S31508000BB8000000200C0000200C000020380100204E
S31508000BC8FEE7000080B500AF0E4B1B680D4A43F4DC
S31508000BD8007313600B4B1B680A4A43F4806313605F
S31508000BE8084B1B68074A43F480731360032000F018
S31508000BF82FF9002000F008F8FFF70AFF0023184627
S31508000C0880BD00BF003C024080B582B000AF786066
S31508000C18124B1A68124B1B7819464FF47A73B3FBB2
S31508000C28F1F3B2FBF3F3184600F039F90346002B43
S31508000C3801D001230EE07B680F2B0AD800227968B9
S31508000C484FF0FF3000F00FF9064A7B68136000235F
S31508000C5800E0012318460837BD4680BD000000207D
S31508000C68080000200400002080B400AF064B1B785B
S31508000C781A46064B1B681344044A136000BFBD4650
S31508000C885DF8047B704700BF080000203401002087
S31508000C9880B400AF034B1B681846BD465DF8047B55
S31508000CA8704700BF3401002080B584B000AF786073
S31508000CB8FFF7EEFFB8607B68FB60FB68B3F1FF3FA0
S31508000CC805D0094B1B781A46FB681344FB6000BF1E
S31508000CD8FFF7DEFF0246BB68D31AFA689A42F7D8C6
S31508000CE800BF1037BD4680BD0800002080B485B017
S31508000CF800AF78607B6803F00703FB600C4BDB6882
S31508000D08BB60BA684FF6FF031340BB60FB681A025C
S31508000D18BB68134343F0BF6343F40033BB60044A1C
S31508000D28BB68D36000BF1437BD465DF8047B7047BF
S31508000D3800ED00E080B400AF044BDB681B0A03F043
S31508000D4807031846BD465DF8047B704700ED00E0CA
S31508000D5880B483B000AF03463960FB7197F9073052
S31508000D68002B0ADB3B68DAB20C4997F907301201FF
S31508000D78D2B20B4483F800230AE03B68DAB2084982
S31508000D88FB7903F00F03043B1201D2B20B441A761F
S31508000D9800BF0C37BD465DF8047B704700E100E0EC
S31508000DA800ED00E080B489B000AFF860B9607A60F9
S31508000DB8FB6803F00703FB61FB69C3F10703042B10
S31508000DC828BF0423BB61FB690433062B02D9FB69D8
S31508000DD8033B00E000237B614FF0FF32BB6902FA50
S31508000DE803F3DA43BB681A407B699A404FF0FF3130
S31508000DF87B6901FA03F3D9437B680B40134318460A
S31508000E082437BD465DF8047B7047000080B582B07C
S31508000E1800AF78607B68013BB3F1807F01D301237B
S31508000E280FE00A4A7B68013B53600F214FF0FF30F9
S31508000E38FFF78EFF054B00229A60044B07221A60BB
S31508000E48002318460837BD4680BD00BF10E000E0FD
S31508000E5880B582B000AF78607868FFF747FF00BFB3
S31508000E680837BD4680BD80B586B000AF0346B96071
S31508000E787A60FB7300237B61FFF75CFF78617A6809
S31508000E88B9687869FFF78EFF024697F90F30114659
S31508000E981846FFF75DFF00BF1837BD4680BD80B509
S31508000EA882B000AF78607868FFF7B0FF0346184647
S31508000EB80837BD4680BD000080B489B000AF7860A9
S31508000EC8396000237B6100233B610023BB61002353
S31508000ED8FB616BE10122FB6902FA03F37B613B685C
S31508000EE81B687A6913403B613A697B699A4240F004
S31508000EF85A813B685B68012B0BD03B685B68022B01
S31508000F0807D03B685B68112B03D03B685B68122BDC
S31508000F1830D17B689B68BB61FB695B00032202FAD8
S31508000F2803F3DB43BA691340BB613B68DA68FB69BC
S31508000F385B0002FA03F3BA691343BB617B68BA69B3
S31508000F489A607B685B68BB610122FB6902FA03F356
S31508000F58DB43BA691340BB613B685B681B0903F04E
S31508000F680102FB6902FA03F3BA691343BB617B689A
S31508000F78BA695A607B68DB68BB61FB695B00032258
S31508000F8802FA03F3DB43BA691340BB613B689A6804
S31508000F98FB695B0002FA03F3BA691343BB617B6812
S31508000FA8BA69DA603B685B68022B03D03B685B6802
S31508000FB8122B23D1FB69DA087B68083253F82230EA
S31508000FC8BB61FB6903F007039B000F2202FA03F3D0
S31508000FD8DB43BA691340BB613B681A69FB6903F0CE
S31508000FE807039B0002FA03F3BA691343BB61FB695B
S31508000FF8DA087B680832B96943F822107B681B68E7
S31508001008BB61FB695B00032202FA03F3DB43BA6997
S315080010181340BB613B685B6803F00302FB695B002E
S3150800102802FA03F3BA691343BB617B68BA691A60A3
S315080010383B685B6803F08053002B00F0B4800023FC
S31508001048FB605F4B5B6C5E4A43F4804353645C4BBE
S315080010585B6C03F48043FB60FB685A4AFB699B0890
S31508001068023352F82330BB61FB6903F003039B0084
S315080010780F2202FA03F3DB43BA691340BB617B68A4
S31508001088514A93422BD07B68504A934225D07B68B5
S315080010984F4A93421FD07B684E4A934219D07B68C1
S315080010A84D4A934213D07B684C4A93420DD07B68CD
S315080010B84B4A934207D07B684A4A934201D1072391
S315080010C80EE008230CE006230AE0052308E00423BB
S315080010D806E0032304E0022302E0012300E00023DC
S315080010E8FA6902F0030292009340BA691343BB6196
S315080010F83449FB699B080233BA6941F823203A4BFD
S315080011081B68BB613B69DB43BA691340BB613B6833
S315080011185B6803F48033002B03D0BA693B69134331
S31508001128BB61314ABB6913602F4B5B68BB613B697E
S31508001138DB43BA691340BB613B685B6803F4003359
S31508001148002B03D0BA693B691343BB61264ABB69BE
S315080011585360254B9B68BB613B69DB43BA691340FF
S31508001168BB613B685B6803F48013002B03D0BA693C
S315080011783B691343BB611C4ABB6993601A4BDB681E
S31508001188BB613B69DB43BA691340BB613B685B6873
S3150800119803F40013002B03D0BA693B691343BB61F8
S315080011A8114ABB69D360FB690133FB61FB690F2BE5
S315080011B87FF690AE00BF2437BD465DF8047B7047BE
S315080011C8003802400038014000000240000402408E
S315080011D800080240000C02400010024000140240B9
S315080011E800180240001C0240003C014080B485B04B
S315080011F800AF78600B467B807B681A697B8813404A
S31508001208002B02D00123FB7301E00023FB73FB7B51
S3150800121818461437BD465DF8047B704780B483B01A
S3150800122800AF78600B467B8013467B707B78002B73
S3150800123803D07A887B689A6103E07B881A047B68FE
S315080012489A6100BF0C37BD465DF8047B704780B4C9
S3150800125883B000AF78600B467B807B685A697B88C9
S315080012681A407B889A4204D17B881A047B689A615B
S3150800127802E07A887B689A6100BF0C37BD465DF83C
S31508001288047B704780B586B000AF78607B68002B12
S3150800129801D101235BE27B681B6803F00103002B7D
S315080012A875D0A34B9B6803F00C03042B0CD0A04BFA
S315080012B89B6803F00C03082B12D19D4B5B6803F45B
S315080012C88003B3F5800F0BD1994B1B6803F40033E1
S315080012D8002B5BD07B685B68002B57D1012336E26D
S315080012E87B685B68B3F5803F06D1914B1B68904ACB
S315080012F843F4803313601DE07B685B68B3F5A02F61
S315080013080CD18B4B1B688A4A43F480231360884B9D
S315080013181B68874A43F4803313600BE0844B1B68C9
S31508001328834A23F480331360814B1B68804A23F46D
S31508001338802313607B685B68002B13D0FFF7A8FC33
S31508001348386108E0FFF7A4FC02463B69D31A642B08
S3150800135801D90323FBE1764B1B6803F40033002B02
S31508001368F0D014E0FFF794FC386108E0FFF790FC2A
S3150800137802463B69D31A642B01D90323E7E16C4B70
S315080013881B6803F40033002BF0D100E000BF7B682C
S315080013981B6803F00203002B63D0654B9B6803F0B8
S315080013A80C03002B0BD0624B9B6803F00C03082B2D
S315080013B81CD15F4B5B6803F48003002B16D15C4B8A
S315080013C81B6803F00203002B05D07B68DB68012B3A
S315080013D801D00123BBE1564B1B6823F0F8027B6852
S315080013E81B69DB00524913430B603AE07B68DB68EC
S315080013F8002B20D04F4B01221A60FFF749FC3861B1
S3150800140808E0FFF745FC02463B69D31A022B01D9C7
S3150800141803239CE1464B1B6803F00203002BF0D01C
S31508001428434B1B6823F0F8027B681B69DB004049BD
S3150800143813430B6015E03F4B00221A60FFF728FCA0
S31508001448386108E0FFF724FC02463B69D31A022BE9
S3150800145801D903237BE1364B1B6803F00203002BF3
S31508001468F0D17B681B6803F00803002B30D07B6833
S315080014785B69002B16D0304B01221A60FFF708FC6F
S31508001488386108E0FFF704FC02463B69D31A022BC9
S3150800149801D903235BE1264B5B6F03F00203002B9C
S315080014A8F0D015E0244B00221A60FFF7F1FB3861EB
S315080014B808E0FFF7EDFB02463B69D31A022B01D970
S315080014C8032344E11A4B5B6F03F00203002BF0D1A8
S315080014D87B681B6803F00403002B00F0A080002338
S315080014E8FB75134B1B6C03F08053002B0FD100239D
S315080014F8BB600F4B1B6C0E4A43F0805313640C4BAE
S315080015081B6C03F08053BB60BB680123FB750B4B50
S315080015181B6803F48073002B21D1084B1B68074A04
S3150800152843F480731360FFF7B3FB386111E000BF1B
S315080015380038024000004742800E474200700040CB
S31508001548FFF7A6FB02463B69D31A022B01D90323E8
S31508001558FDE0814B1B6803F48073002BF0D07B6891
S315080015689B68012B06D17D4B1B6F7C4A43F0010310
S3150800157813671CE07B689B68052B0CD1774B1B6FA0
S31508001588764A43F004031367744B1B6F734A43F098
S31508001598010313670BE0714B1B6F704A23F00103B5
S315080015A813676E4B1B6F6D4A23F0040313677B683A
S315080015B89B68002B15D0FFF76BFB38610AE0FFF72D
S315080015C867FB02463B69D31A41F28832934201D92E
S315080015D80323BCE0614B1B6F03F00203002BEED01C
S315080015E814E0FFF755FB38610AE0FFF751FB02469E
S315080015F83B69D31A41F28832934201D90323A6E0FC
S31508001608564B1B6F03F00203002BEED1FB7D012B13
S3150800161805D1524B1B6C514A23F0805313647B68DF
S315080016289B69002B00F092804C4B9B6803F00C03D7
S31508001638082B5CD07B689B69022B41D1484B00225A
S315080016481A60FFF725FB386108E0FFF721FB024619
S315080016583B69D31A022B01D9032378E03F4B1B6851
S3150800166803F00073002BF0D17B68DA697B681B6A84
S315080016781A437B685B6A9B011A437B689B6A5B080B
S31508001688013B1B041A437B68DB6A1B063349134371
S315080016984B60334B01221A60FFF7FAFA386108E003
S315080016A8FFF7F6FA02463B69D31A022B01D9032338
S315080016B84DE02A4B1B6803F00073002BF0D045E079
S315080016C8274B00221A60FFF7E3FA386108E0FFF7AC
S315080016D8DFFA02463B69D31A022B01D9032336E0FF
S315080016E81E4B1B6803F00073002BF0D12EE07B68B5
S315080016F89B69012B01D1012329E0184B5B68FB6024
S31508001708FB6803F480027B68DB699A421CD1FB6894
S3150800171803F03F027B681B6A9A4215D1FA6847F6B6
S31508001728C07313407A68526A93420DD1FB6803F472
S3150800173840327B689B6A9A4206D1FB6803F070625E
S315080017487B68DB6A9A4201D0012300E00023184629
S315080017581837BD4680BD00BF0070004000380240FB
S315080017686000474280B584B000AF786039607B680E
S31508001778002B01D10123CCE0684B1B6803F00F034B
S315080017883A689A420CD9654B3A68D2B21A70634BD2
S315080017981B6803F00F033A689A4201D00123B8E0A0
S315080017A87B681B6803F00203002B20D07B681B6844
S315080017B803F00403002B05D0594B9B68584A43F499
S315080017C8E05393607B681B6803F00803002B05D079
S315080017D8534B9B68524A43F460439360504B9B684B
S315080017E823F0F0027B689B684D4913438B607B683E
S315080017F81B6803F00103002B44D07B685B68012B48
S3150800180807D1474B1B6803F40033002B19D1012372
S315080018187FE07B685B68022B03D07B685B68032BD9
S3150800182807D13F4B1B6803F00073002B09D101232E
S315080018386FE03B4B1B6803F00203002B01D1012321
S3150800184867E0374B9B6823F003027B685B6834497B
S3150800185813438B60FFF71CFAF8600AE0FFF718FADB
S315080018680246FB68D31A41F28832934201D9032308
S315080018784FE02B4B9B6803F00C027B685B689B0068
S315080018889A42EBD1254B1B6803F00F033A689A4234
S315080018980CD2224B3A68D2B21A70204B1B6803F056
S315080018A80F033A689A4201D0012332E07B681B6825
S315080018B803F00403002B08D0194B9B6823F4E05265
S315080018C87B68DB68164913438B607B681B6803F0E3
S315080018D80803002B09D0124B9B6823F460427B68E7
S315080018E81B69DB000E4913438B6000F021F801469B
S315080018F80B4B9B681B0903F00F030A4AD35C21FAB2
S3150800190803F3094A1360094B1B681846FFF77CF965
S31508001918002318461037BD4680BD00BF003C02406C
S3150800192800380240D02600080000002004000020E5
S31508001938F0B585B000AF00237B600023FB60002369
S315080019483B600023BB60634B9B6803F00C03042BC6
S3150800195807D0082B08D0002B40F0B4805E4BBB603C
S31508001968B3E05E4BBB60B0E05A4B5B6803F03F03DD
S315080019787B60584B5B6803F48003002B4AD0554BB1
S315080019885B689B094FF0000440F2FF114FF0000214
S3150800199803EA010504EA0206294632464FF000031F
S315080019A84FF00004540144EAD1644B011946224613
S315080019B8491B62EB06024FF000034FF0000494013E
S315080019C844EA91648B015B1A64EB02044FF0000148
S315080019D84FF00002E20042EA5372D9000B46144659
S315080019E85B1944EB06044FF000014FF0000262024F
S315080019F842EAD35259020B461446184621467B68D2
S31508001A084FF000041A462346FEF7DAFB03460C464F
S31508001A18FB6049E02F4B5B689B094FF0000440F2D6
S31508001A28FF114FF0000203EA010504EA02062946F7
S31508001A3832464FF000034FF00004540144EAD164DB
S31508001A484B0119462246491B62EB06024FF0000372
S31508001A584FF00004940144EA91648B015B1A64EB25
S31508001A6802044FF000014FF00002E20042EA537206
S31508001A78D9000B4614465B1944EB06044FF00001DF
S31508001A884FF00002A20242EA935299020B46144604
S31508001A98184621467B684FF000041A462346FEF787
S31508001AA88FFB03460C46FB600A4B5B681B0C03F06E
S31508001AB8030301335B003B60FA683B68B2FBF3F348
S31508001AC8BB6002E0044BBB6000BFBB68184614370E
S31508001AD8BD46F0BD003802400024F40000127A0022
S31508001AE880B400AF034B1B681846BD465DF8047BF7
S31508001AF8704700BF0000002080B500AFFFF7F0FF71
S31508001B080146054B9B689B0A03F00703034AD35C07
S31508001B1821FA03F3184680BD00380240E02600087B
S31508001B2880B500AFFFF7DCFF0146054B9B685B0BEA
S31508001B3803F00703034AD35C21FA03F3184680BD6A
S31508001B4800380240E026000880B582B000AFFFF7EB
S31508001B589FF878605D4B1B685C4A43F00103136085
S31508001B6808E0FFF795F802467B68D31A022B01D9D5
S31508001B780323A7E0554B1B6803F00203002BF0D09C
S31508001B88524B1B68514A43F080031360FFF780F8ED
S31508001B9878604E4B00229A600AE0FFF779F8024609
S31508001BA87B68D31A41F28832934201D9032389E024
S31508001BB8464B9B6803F00C03002BEED1FFF768F839
S31508001BC87860424B1B68414A23F45023136008E0A7
S31508001BD8FFF75EF802467B68D31A642B01D90323FC
S31508001BE870E03A4B1B6803F40033002BF0D1FFF77B
S31508001BF84FF87860354B1B68344A23F080731360B6
S31508001C0808E0FFF745F802467B68D31A022B01D984
S31508001C18032357E02D4B1B6803F00073002BF0D104
S31508001C28FFF736F87860294B1B68284A23F0806343
S31508001C38136008E0FFF72CF802467B68D31A022BD4
S31508001C4801D903233EE0214B1B6803F00063002BF0
S31508001C58F0D11E4B1E4A5A601C4B1E4AC3F88420F4
S31508001C681A4BDB68194A23F4F853D360174BDB6819
S31508001C78164A23F40053D360144BDB68134A43F41B
S31508001C881F03D360114BDB68104A43F40013D36073
S31508001C980E4B5B6F0D4A23F0010353670B4B5B6FC3
S31508001CA80A4A43F0807353670B4B0C4A1A600C4B6D
S31508001CB81B681846FEF7A8FF0346002B01D0012328
S31508001CC800E0002318460837BD4680BD00380240A4
S31508001CD81030000400300020000000200024F40022
S31508001CE80400002080B582B000AF78607B68002BBE
S31508001CF801D101233FE07B6893F83930DBB2002B2A
S31508001D0806D17B68002283F838207868FEF7A8FE93
S31508001D187B68242283F839207B681B68DA687B6825
S31508001D281B6822F40052DA60786800F019F97B68B3
S31508001D381B681A697B681B6822F490421A617B68DB
S31508001D481B685A697B681B6822F02A025A617B68F5
S31508001D581B68DA687B681B6842F40052DA607B689D
S31508001D680022DA637B68202283F839207B682022E0
S31508001D7883F83A20002318460837BD4680BD80B543
S31508001D8888B002AFF860B9603B601346FB80002351
S31508001D987B61FB6893F83A30DBB2202B40F09080E1
S31508001DA8BB68002B02D0FB88002B01D1012388E0F1
S31508001DB8FB6893F83830012B01D1022381E0FB68D0
S31508001DC8012283F83820FB680022DA63FB6822229E
S31508001DD883F83A20FEF75CFF7861FB68FA889A85EB
S31508001DE8FB68FA88DA85FB68002283F838205CE005
S31508001DF8FB68DB8D9BB2013B9AB2FB68DA85FB6808
S31508001E089B68B3F5805F2BD13B6800937B690022FA
S31508001E182021F86800F059F80346002B01D003235F
S31508001E284FE0BB683B61FB681B69002B0CD1FB685C
S31508001E381B685B689BB2C3F308039AB23B691A80AE
S31508001E48BB680233BB6030E0FB681B685B689BB203
S31508001E58DBB29AB23B691A80BB680133BB6024E0DF
S31508001E683B6800937B6900222021F86800F02DF86A
S31508001E780346002B01D0032323E0FB681B69002BCC
S31508001E8808D1FB681B685968BB685A1CBA60CAB28D
S31508001E981A700AE0FB681B685B68DAB2BB68591CEB
S31508001EA8B96002F07F02D2B21A70FB68DB8D9BB26A
S31508001EB8002B9DD1FB68202283F83A20002300E0F6
S31508001EC8022318461837BD4680BD80B584B000AFD2
S31508001ED8F860B9603B601346FB712CE0BB69B3F147
S31508001EE8FF3F28D0BB69002B07D0FEF7D1FE024674
S31508001EF83B68D31ABA699A421DD2FB681B68DA6826
S31508001F08FB681B6822F4D072DA60FB681B685A699A
S31508001F18FB681B6822F001025A61FB68202283F8D5
S31508001F283920FB68202283F83A20FB68002283F8C8
S31508001F38382003230FE0FB681B681A68BB68134040
S31508001F48BA689A420CBF01230023DBB21A46FB790A
S31508001F589A42C3D0002318461037BD4680BD0000F4
S31508001F682DE9F04F85B000AF78607B681B681B6960
S31508001F7823F440517B68DA687B681B680A431A6150
S31508001F887B689A687B681B691A437B685B691A438E
S31508001F987B68DB691343FB607B681B68DB6823F493
S31508001FA8164323F00C037A681268F9680B43D36062
S31508001FB87B681B685B6923F440717B689A697B6850
S31508001FC81B680A435A617B68DB69B3F5004F40F022
S31508001FD88B817B681B68C14A934205D07B681B685E
S31508001FE8BF4A934240F0BD80FFF79AFDB860BB68C8
S31508001FF81D464FF00006A846B14618EB080349EBFC
S3150800200809049846A14618EB050849EB06094FF056
S3150800201800014FF000024FEAC90242EA58724FEA35
S31508002028C8018846914618EB050049EB06017B6806
S315080020385B681D464FF000066B1946EB06041A4600
S315080020482346FEF7BDF803460C461A46A54BA3FBDE
S3150800205802235B094FEA0318BB681D464FF00006C2
S31508002068A946B24619EB09034AEB0A049946A24659
S3150800207819EB05094AEB060A4FF000014FF0000272
S315080020884FEACA0242EA59724FEAC9018946924694
S3150800209819EB05004AEB06017B685B681D464FF09D
S315080020A800066B1946EB06041A462346FEF788F817
S315080020B803460C461A468B4BA3FB02135B0964219D
S315080020C801FB03F3D31ADB003233864AA2FB032348
S315080020D85B095B0003F4F8739844BB681D464FF028
S315080020E80006A946B24619EB09034AEB0A049946BB
S315080020F8A24619EB05094AEB060A4FF000014FF00C
S3150800210800024FEACA0242EA59724FEAC9018946E9
S31508002118924619EB05004AEB06017B685B681D4683
S315080021284FF000066B1946EB06041A462346FEF7D7
S3150800213847F803460C461A466A4BA3FB02135B0983
S31508002148642101FB03F3D31ADB003233654AA2FB89
S3150800215803235B0903F007027B681B6842449A60FD
S315080021686FE2FFF7C9FCB860BB681D464FF000066A
S31508002178A846B14618EB080349EB09049846A14650
S3150800218818EB050849EB06094FF000014FF0000265
S315080021984FEAC90242EA58724FEAC8018846914688
S315080021A818EB050049EB06017B685B681D464FF08E
S315080021B800066B1946EB06041A462346FEF700F88E
S315080021C803460C461A46474BA3FB02235B094FEA0C
S315080021D80318BB681D464FF00006A946B24619EB18
S315080021E809034AEB0A049946A24619EB05094AEB7C
S315080021F8060A4FF000014FF000024FEACA0242EA07
S3150800220859724FEAC9018946924619EB05004AEB05
S3150800221806017B685B681D464FF000066B1946EB9E
S3150800222806041A462346FDF7CBFF03460C461A460C
S315080022382C4BA3FB02135B09642101FB03F3D31A96
S31508002248DB003233274AA2FB03235B095B0003F44E
S31508002258F8739844BB681D464FF00006A946B2466F
S3150800226819EB09034AEB0A049946A24619EB05092C
S315080022784AEB060A4FF000014FF000024FEACA027D
S3150800228842EA59724FEAC9018946924619EB05008E
S315080022984AEB06017B685B681D464FF000066B191A
S315080022A846EB06041A462346FDF78AFF03460C46FC
S315080022B81A460C4BA3FB02135B09642101FB03F3C3
S315080022C8D31ADB003233074AA2FB03235B0903F060
S315080022D807027B681B6842449A60B2E10010014015
S315080022E8001401401F85EB517B681B68D74A934247
S315080022F805D07B681B68D64A934240F0D180FFF721
S315080023080FFCB860BB689A464FF0000BD046D94612
S3150800231818EB080349EB09049846A14618EB0A087E
S3150800232849EB0B094FF000014FF000024FEAC902CA
S3150800233842EA58724FEAC801884691461AEB0805D8
S315080023484BEB09067B685B6819464FF000024FF0AD
S3150800235800034FF00004940044EA91748B001A466F
S31508002368234628463146FDF72BFF03460C461A46F0
S31508002378B84BA3FB02235B094FEA0318BB689B46C5
S315080023884FF0000CD946E24619EB09034AEB0A0452
S315080023989946A24619EB0B094AEB0C0A4FF00001BD
S315080023A84FF000024FEACA0242EA59724FEAC901D7
S315080023B8894692461BEB09054CEB0A067B685B685F
S315080023C819464FF000024FF000034FF0000494003E
S315080023D844EA91748B001A46234628463146FDF787
S315080023E8EFFE03460C461A469A4BA3FB02135B09F3
S315080023F8642101FB03F3D31A1B013233954AA2FB66
S3150800240803235B0903F0F0039844BB689B464FF027
S31508002418000CD946E24619EB09034AEB0A04994621
S31508002428A24619EB0B094AEB0C0A4FF000014FF0CC
S3150800243800024FEACA0242EA59724FEAC9018946B6
S3150800244892461BEB09054CEB0A067B685B6819463E
S315080024584FF000024FF000034FF00004940044EADE
S3150800246891748B001A46234628463146FDF7A8FE7E
S3150800247803460C461A46774BA3FB02135B096421ED
S3150800248801FB03F3D31A1B013233724AA2FB032357
S315080024985B0903F00F027B681B6842449A60D0E028
S315080024A8FFF72AFBB860BB689A464FF0000BD04680
S315080024B8D94618EB080349EB09049846A14618EBD0
S315080024C80A0849EB0B094FF000014FF000024FEAE2
S315080024D8C90242EA58724FEAC801884691461AEB79
S315080024E808054BEB09067B685B6819464FF000023E
S315080024F84FF000034FF00004940044EA91748B00EF
S315080025081A46234628463146FDF75AFE03460C4620
S315080025181A46504BA3FB02235B094FEA0318BB680C
S315080025289B464FF0000CD946E24619EB09034AEBDD
S315080025380A049946A24619EB0B094AEB0C0A4FF00E
S3150800254800014FF000024FEACA0242EA59724FEAFE
S31508002558C901894692461BEB09054CEB0A067B68B6
S315080025685B6819464FF000024FF000034FF000046D
S31508002578940044EA91748B001A4623462846314645
S31508002588FDF71EFE03460C461A46324BA3FB0213FA
S315080025985B09642101FB03F3D31A1B0132332D4A65
S315080025A8A2FB03235B0903F0F0039844BB689B4628
S315080025B84FF0000CD946E24619EB09034AEB0A0420
S315080025C89946A24619EB0B094AEB0C0A4FF000018B
S315080025D84FF000024FEACA0242EA59724FEAC901A5
S315080025E8894692461BEB09054CEB0A067B685B682D
S315080025F819464FF000024FF000034FF0000494000C
S3150800260844EA91748B001A46234628463146FDF754
S31508002618D7FD03460C461A460E4BA3FB02135B0965
S31508002628642101FB03F3D31A1B013233094AA2FBBF
S3150800263803235B0903F00F027B681B6842449A6010
S31508002648FFE700BF1437BD46BDE8F08F001001400C
S31508002658001401401F85EB5170B50D4E0D4CA41B97
S31508002668A4100025A54209D10B4E0C4C00F020F801
S31508002678A41BA4100025A54205D170BD56F825301F
S3150800268898470135EEE756F8253098470135F2E7B9
S31508002698F0260008F0260008F0260008F4260008A8
S315080026A802440346934200D1704703F8011BF9E731
S315080026B8F8B500BFF8BC08BC9E467047F8B500BF19
S30D080026C8F8BC08BC9E467047E9
S315080026D000000000000000000102030406070809C4
S30D080026E00000000001020304DA
S30D080026E810DBFF7F0100000072
S309080026F0AD01000822
S309080026F48901000842
S311080026F80024F40010000000010000009F
S70508000B796E
