:020000040800F2
:1000000000000220E9120008FD1100080312000898
:10001000091200080F120008151200080000000065
:100020000000000000000000000000001B1200089B
:1000300029120008000000003712000845120008CD
:100040003913000839130008391300083913000860
:100050003913000839130008391300083913000850
:100060003913000839130008391300083913000840
:100070003913000839130008391300083913000830
:100080003913000839130008391300083913000820
:100090003913000839130008391300083913000810
:1000A0003913000839130008391300083913000800
:1000B00039130008391300083913000839130008F0
:1000C00039130008391300083913000839130008E0
:1000D00039130008391300083913000839130008D0
:1000E00039130008391300083913000839130008C0
:1000F00039130008391300083913000839130008B0
:10010000391300083913000839130008391300089F
:10011000391300083913000839130008391300088F
:10012000391300083913000839130008391300087F
:10013000391300083913000839130008391300086F
:10014000391300083913000839130008391300085F
:10015000391300083913000839130008391300084F
:10016000391300083913000839130008391300083F
:100170003913000839130008391300080000000083
:080180003913000839130008CF
:1001900010B5054C237833B9044B13B10448AFF3C1
:1001A00000800123237010BD7000002000000000BB
:1001B000BC40000808B5034B1BB103490348AFF32B
:1001C000008008BD0000000074000020BC40000852
:1001D000034613F8012B002AFBD1181A0138704787
:1001E00001F0FF01102A2BDB10F0070F08D010F8E8
:1001F000013B013A8B422DD010F0070F42B3F6D1EC
:10020000F0B441EA012141EA014122F007047FF004
:1002100000070023F0E80256083C85EA010586EA5B
:10022000010685FA47F5A3FA87F586FA47F6A5FA97
:1002300087F68EB9EED1F0BC01F0FF0102F00702A3
:1002400032B110F8013B013A83EA010313B1F8D14E
:100250000020704701387047002D06BF354603382F
:10026000073815F0010F07D1013015F4807F02BF68
:10027000013015F4C03F0130F0BC0138704700BFB9
:1002800053B94AB9002908BF00281CBF4FF0FF31FD
:100290004FF0FF3000F072B9ADF1080C6DE904CEFB
:1002A00000F006F8DDF804E0DDE9022304B0704751
:1002B0002DE9F047089E04468846002B4BD18A4220
:1002C000154667D9B2FA82F24AB1C2F1200701FAA3
:1002D00002F320FA07F7954047EA030894404FEAF3
:1002E000154E230CB8FBFEF71FFA85FC0EFB178892
:1002F00043EA084307FB0CF1994209D9EB1807F1CF
:10030000FF3080F01B81994240F21881023F2B445C
:100310005B1AA4B2B3FBFEF00EFB103344EA0344B5
:1003200000FB0CFCA44509D92C1900F1FF3380F027
:100330000781A44540F2048102382C4440EA07407A
:10034000A4EB0C0400271EB1D4400023C6E90043EF
:100350003946BDE8F0878B4209D9002E00F0EB80CA
:100360000027C6E9000138463946BDE8F087B3FAF0
:1003700083F7002F47D18B4202D3824200F2FA80EA
:10038000841A61EB030301209846002EE0D0C6E9F1
:100390000048DDE702B9FFDEB2FA82F2002A40F03F
:1003A0008F80491B4FEA154E1FFA85F80127B1FBD4
:1003B000FEFC230C0EFB1C1143EA014308FB0CF16D
:1003C000994207D9EB180CF1FF3002D2994200F2A2
:1003D000CD808446591AA3B2B1FBFEF00EFB101477
:1003E00043EA044408FB00F8A04507D92C1900F1A2
:1003F000FF3302D2A04500F2B6801846A4EB0804F1
:1004000040EA0C409FE7C7F1200CBB4022FA0CFEEB
:100410004EEA030E01FA07F420FA0CF521FA0CF368
:100420004FEA1E482543B3FBF8F92C0C08FB19339F
:100430001FFA8EFA44EA034309FB0AF49C4202FACB
:1004400007F200FA07F10BD91EEB030309F1FF30A5
:1004500080F087809C4240F28480A9F102097344B5
:100460001B1BADB2B3FBF8F008FB103345EA0344A5
:1004700000FB0AFAA24508D91EEB040400F1FF3381
:100480006BD2A24569D90238744440EA0940A0FB06
:100490000289A4EB0A044C45C2464B4654D351D0C2
:1004A000002E69D0B1EB0A0564EB030404FA0CFCDE
:1004B000FD40FC404CEA0505C6E90054002747E72B
:1004C000C2F1200320FA03F7954001FA02F021FA65
:1004D00003F34FEA154E3843010CB3FBFEF71FFA46
:1004E00085F80EFB173341EA034107FB08F38B4203
:1004F00004FA02F407D9691807F1FF3C2FD28B42A6
:100500002DD9023F2944CB1A81B2B3FBFEF00EFB7A
:10051000103341EA034100FB08F38B4207D9691805
:1005200000F1FF3C17D28B4215D902382944C91A71
:1005300040EA07473BE73746304609E70746E7E624
:100540001846FBE64145ABD2B8EB020A69EB0E0256
:1005500001381346A4E76046E9E7184695E7674681
:10056000D1E781467CE702382C4447E7ACF1020C26
:100570002B442FE7384608E73746E9E6704700BFC7
:1005800080B500AF00F0DAFE00F018F800F0E8F8EF
:1005900000F0BCF800F07CF800F08EF8012106486D
:1005A00001F05AFE0346012B02D100F08DF9F5E768
:1005B00000F0B4F9F2E700BF0000024080B594B04B
:1005C00000AF07F1200330220021184603F068F93C
:1005D00007F10C0300221A605A609A60DA601A610F
:1005E0000023BB60284B1B6C274A43F080531364E5
:1005F000254B1B6C03F08053BB60BB6800237B6002
:10060000224B1B68214A43F4804313601F4B1B6835
:1006100003F480437B607B6801233B624FF48033AB
:100620007B620223BB634FF48003FB6308233B64BC
:100630004FF4A8737B640223BB640723FB6407F1B8
:100640002003184601F054FE0346002B01D000F0B1
:10065000BDFC0F23FB6002233B6100237B614FF451
:10066000A053BB614FF48053FB6107F10C030521DC
:10067000184602F0ADF80346002B01D000F0A6FCAE
:1006800000BF5037BD4680BD0038024000700040BA
:1006900080B500AF064B074A1A60054800F0FBFF23
:1006A0000346002B01D000F091FC00BF80BD00BFCD
:1006B000E00000200030024080B500AF114B124A2C
:1006C0001A60104B4FF4E1325A600E4B00229A60D0
:1006D0000C4B0022DA600B4B00221A61094B0C22F2
:1006E0005A61084B00229A61064B0022DA610548E4
:1006F00002F02EFB0346002B01D000F067FC00BF88
:1007000080BD00BFE80000200044004080B500AF7D
:10071000114B124A1A60104B4FF4E1325A600E4BE3
:1007200000229A600C4B0022DA600B4B00221A6107
:10073000094B0C225A61084B00229A61064B002299
:10074000DA61054802F004FB0346002B01D000F0FB
:100750003DFC00BF80BD00BFA0000020004800405D
:1007600080B58CB000AF07F11C0300221A605A60FC
:100770009A60DA601A610023BB614D4B1B6B4C4AD7
:1007800043F0040313634A4B1B6B03F00403BB6188
:10079000BB6900237B61464B1B6B454A43F08003DA
:1007A0001363434B1B6B03F080037B617B69002366
:1007B0003B613F4B1B6B3E4A43F0010313633C4BD1
:1007C0001B6B03F001033B613B690023FB60384B6B
:1007D0001B6B374A43F002031363354B1B6B03F06B
:1007E0000203FB60FB680023BB60314B1B6B304A8C
:1007F00043F0080313632E4B1B6B03F00803BB602D
:10080000BB6800237B602A4B1B6B294A43F0100313
:100810001363274B1B6B03F010037B607B68002284
:100820004FF21001234801F02FFD0123FB61224B01
:100830003B6200237B6207F11C0319461F4801F04D
:1008400077FA0423FB6100233B6200237B6207F1FC
:100850001C0319461A4801F06BFA4FF21003FB61B2
:1008600001233B6200237B620023BB6207F11C0370
:100870001946104801F05CFA2023FB6100233B621B
:1008800000237B6207F11C0319460A4801F050FA65
:100890000223FB61084B3B6200237B6207F11C03D0
:1008A0001946084801F044FA00BF3037BD4680BD04
:1008B00000380240000C024000001210000002400C
:1008C000000402400010024080B584B000AF0F4B1E
:1008D0001B68FB600E4B1B68BB60BB687B6002F053
:1008E00069F902F067F90B4802F07FFA0A4800F054
:1008F000EEFE00F045FDFB683B603B6883F3088833
:100900007B68984700BF1037BD4680BD0080000857
:1009100004800008A0000020E000002080B500AFA7
:100920004FF48041374801F0C8FCC8220021364806
:1009300002F0B6FF4FF47A7301223349334802F0D4
:1009400019FB314B1A78324B1A70314B1B789AB223
:100950004FF47A732F492D4802F00CFB2A4B5B7839
:10096000513B0B2B4AD801A252F823F09D090008F5
:10097000A5090008AD090008B5090008BD0900086F
:10098000C5090008CD090008D5090008DD090008DF
:10099000E5090008ED090008F50900081A4800F00B
:1009A0003BF82CE0184800F07FF828E0164800F0EB
:1009B00085F824E0144800F08BF820E0124800F09D
:1009C00091F81CE0104800F097F818E00E4800F08D
:1009D000F1F814E00C4800F073F910E00A4800F058
:1009E00079F90CE0084800F07FF908E0064800F0CB
:1009F00085F904E0044800F08BF900E000BF00BF77
:100A000080BD00BF000C024028010020A000002093
:100A10008C0000202901002080B586B000AF7860EE
:100A20001D4800F0ADFA7B681B7801337B617B6960
:100A3000043B7A6813441B683B617B69043B3A6959
:100A40001946786800F09AF90346002B1AD113482A
:100A500000F096FA7B681B780121184600F062F9D5
:100A600000F0C0F90346FB73FB7B1946FB7B1A467B
:100A70000B4800F085FA07F10F030121184600F03A
:100A8000B9F904E0074800F07BFA00F065F900BF0F
:100A90001837BD4680BD00BFD440000800410008A3
:100AA000244100084441000880B483B000AF78605E
:100AB00000BF0C37BD465DF8047B704780B483B03F
:100AC00000AF786000BF0C37BD465DF8047B70470F
:100AD00080B483B000AF786000BF0C37BD465DF8CE
:100AE000047B704780B483B000AF786000BF0C37E0
:100AF000BD465DF8047B704780B586B000AF786076
:100B00000023FB73254800F03BFA254B1B7801338B
:100B10007B617B69043B224A13441B683B617B6910
:100B2000043B3A6919461E4800F028F90346002B99
:100B30002BD11C4800F024FA7B681B780121184651
:100B400000F0F0F87B6802331B7819467B680333AA
:100B50001B781A46144800F013FA7B6802331A789F
:100B60007B6803331B781946104600F095F903465D
:100B7000FB73FB7B19460D4800F002FA07F10F03E7
:100B80000121184600F036F904E0094800F0F8F9B0
:100B900000F0E2F800BF1837BD4680BD6441000890
:100BA000280100200041000894410008C8410008C5
:100BB0004441000880B588B000AF78600023FB771F
:100BC0000023FB730023BB7700237B777B681B78B4
:100BD0007B777B689B793B777B68D3F80230BB617E
:100BE0007B7F7A6813441B78BB772D4800F0C8F9E7
:100BF0002C4B1B6801332B4A13602B4B1B780133A2
:100C00007B617B69043B284A13441B683B617B6919
:100C1000043B3A691946244800F0B0F80346002B1B
:100C200035D1224800F0ACF94FF4FA7000F02CFCFA
:100C30007B681B780121184600F074F8B9691C48DC
:100C400000F09EF9B86900F0E9F80346002B12D1D4
:100C5000184800F095F97B6807333A7FB969184660
:100C600000F061F90346FB7307F10F0301211846F9
:100C700000F0C0F810E0104800F082F90123FB7387
:100C800007F10F030121184600F0B4F804E00B4807
:100C900000F076F900F060F800BF2037BD4680BD57
:100CA000F0410008900000202801002020420008A8
:100CB000444200086C42000894420008C042000808
:100CC00080B483B000AF786000BF0C37BD465DF8DC
:100CD000047B704780B483B000AF786000BF0C37EE
:100CE000BD465DF8047B704780B483B000AF786088
:100CF00000BF0C37BD465DF8047B704780B483B0FD
:100D000000AF786000BF0C37BD465DF8047B7047CC
:100D100080B483B000AF786000BF0C37BD465DF88B
:100D2000047B704780B584B000AF03460A46FB7170
:100D30001346BB71A5233B73BB797B7307F10C0191
:100D40004FF0FF330222034802F07BF800BF103758
:100D5000BD4680BDA000002080B582B000AF7F23DB
:100D6000FB71F91D4FF0FF330122034802F069F8CF
:100D700000BF0837BD4680BDA000002080B588B008
:100D800000AFF860B9607A60FF23FB610023BB61AC
:100D90000FE0FA68BB6913441B787B6107F1140309
:100DA000012219460E4800F0C2FCF861BB6901330C
:100DB000BB61BA69BB689A42EBD3094B1B689A685E
:100DC000074B1B6842F001029A60FA697B689A42FD
:100DD00001D1002300E0012318462037BD4680BD25
:100DE000E000002080B400AF10231846BD465DF837
:100DF000047B704780B582B000AF786039603B6893
:100E00009AB24FF0FF337968034802F01AF800BF36
:100E10000837BD4680BD00BFA000002080B483B06D
:100E200000AF78607B68B3F1005F05D37B68154A3B
:100E3000934201D800231EE07B68134A934205D9F0
:100E40007B68124A934201D8002314E07B68B3F117
:100E5000006F05D37B68B3F1016F01D200230AE074
:100E60007B680B4A934205D97B680A4A934201D8B2
:100E7000002300E0012318460C37BD465DF8047BD3
:100E8000704700BF00C00120FFBF0120000002200A
:100E9000FF3F02400050024080B58AB000AF0346D9
:100EA0000A46FB711346BB71BB79082B01D9042399
:100EB00035E0FB79FF2B02D0FB79072B2ED8FB798D
:100EC000FF2B02D101233B6112E0FB79C3F1080340
:100ED00087F82730BA7997F827309A4202D997F8DD
:100EE0002730BB7100233B61FB79BB61BB79FB61A0
:100EF00001237B6100F09AFC02233B6207F10C02A4
:100F000007F110031146184600F0F0FD034687F87C
:100F1000263000F0ADFC97F8263000E00423184698
:100F20002837BD4680BD90B587B000AFF860B96086
:100F30007A600023FB7500F079FC00233B6113E02D
:100F4000BA683B69D118FA683B6913441B78DBB275
:100F50004FF000041A462346002000F013FC03461D
:100F6000FB753B6901333B613A697B689A42E7D381
:100F700000F07EFCFB7D18461C37BD4690BD00008E
:100F80000FB480B596B000AF07F164037B6007F142
:100F900008037A68396E184602F0A0FC07F10803CE
:100FA0001846FFF715F903469AB207F108014FF00A
:100FB000FF33054801F045FF00BF5837BD46BDE887
:100FC000804004B0704700BFE800002080B400AF4C
:100FD00072B6FEE780B582B000AF00237B60104B95
:100FE0005B6C0F4A43F4804353640D4B5B6C03F41A
:100FF00080437B607B6800233B60094B1B6C084A85
:1010000043F080531364064B1B6C03F080533B602A
:101010003B68072000F00CFB00BF0837BD4680BDD1
:101020000038024080B485B000AF78607B681B68F0
:101030000B4A93420DD10023FB600A4B1B6B094AFC
:1010400043F480531363074B1B6B03F48053FB6023
:10105000FB6800BF1437BD465DF8047B704700BFD6
:10106000003002400038024080B483B000AF7860A6
:101070007B681B68074A934205D1074B1B6B064AE6
:1010800023F48053136300BF0C37BD465DF8047B27
:10109000704700BF003002400038024080B58CB07D
:1010A00000AF786007F11C0300221A605A609A6052
:1010B000DA601A617B681B68324A93422CD10023A4
:1010C000BB61314B1B6C304A43F4003313642E4B2D
:1010D0001B6C03F40033BB61BB6900237B612A4BAB
:1010E0001B6B294A43F001031363274B1B6B03F06F
:1010F00001037B617B690C23FB6102233B620023BC
:101100007B620323BB620723FB6207F11C031946C2
:101110001E4800F00DFE31E07B681B681C4A9342BC
:101120002CD100233B61184B1B6C174A43F48023DE
:101130001364154B1B6C03F480233B613B69002354
:10114000FB60114B1B6B104A43F0020313630E4B01
:101150001B6B03F00203FB60FB684FF44063FB6111
:1011600002233B6200237B620323BB620723FB62F3
:1011700007F11C031946074800F0DAFD00BF3037BD
:10118000BD4680BD004400400038024000000240DF
:10119000004800400004024080B582B000AF786093
:1011A0007B681B68104A93420AD1104B1B6C0F4A94
:1011B00023F4003313640C210D4800F053FF0FE0BB
:1011C0007B681B680B4A93420AD1084B1B6C074A89
:1011D00023F4802313644FF44061074800F042FF7A
:1011E00000BF0837BD4680BD0044004000380240C3
:1011F00000000240004800400004024080B400AFFC
:10120000FEE780B400AFFEE780B400AFFEE780B435
:1012100000AFFEE780B400AFFEE780B400AF00BFD0
:10122000BD465DF8047B704780B400AF00BFBD468B
:101230005DF8047B704780B400AF00BFBD465DF829
:10124000047B704780B500AF00F0FEF800BF80BDA2
:1012500080B586B000AF7860144A154BD31A7B6115
:101260007B693B61134B1B68002B02D1114B124A67
:101270001A60104B1A687B6813443A699A4207D285
:1012800002F0E4FA02460C2313604FF0FF3309E04A
:10129000084B1B68FB60074B1A687B681344054AC0
:1012A0001360FB6818461837BD4680BD0000022059
:1012B00000040000940000201802002080B400AF59
:1012C000084BD3F88830074A43F47003C2F88830DB
:1012D000044B4FF000629A6000BFBD465DF8047B8E
:1012E000704700BF00ED00E0DFF834D0002103E0DC
:1012F0000C4B5B58435004310B480C4B42189A423C
:10130000F6D30B4A02E0002342F8043B094B9A4211
:10131000F9D3FFF7D3FF02F09FFAFFF731F97047D7
:10132000000002203C430008000000207000002064
:101330007000002018020020FEE7000080B500AF1A
:101340000E4B1B680D4A43F4007313600B4B1B6874
:101350000A4A43F480631360084B1B68074A43F44E
:1013600080731360032000F063F9002000F03CF864
:10137000FFF730FE0023184680BD00BF003C02404E
:1013800080B500AF134B4FF0FF321A62114B0022B1
:101390001A62104B4FF0FF325A620E4B00225A6213
:1013A0000C4B4FF0FF321A610A4B00221A61094BB5
:1013B0004FF0FF325A61074B00225A61054B4FF044
:1013C000FF329A61034B00229A6100F005F8002376
:1013D000184680BD0038024080B400AF00BFBD4653
:1013E0005DF8047B7047000080B582B000AF786084
:1013F000124B1A68124B1B7819464FF47A73B3FBE1
:10140000F1F3B2FBF3F3184600F039F90346002B71
:1014100001D001230EE07B680F2B0AD800227968E7
:101420004FF0FF3000F00FF9064A7B68136000238D
:1014300000E0012318460837BD4680BD00000020AB
:10144000080000200400002080B400AF064B1B7889
:101450001A46064B1B681344044A136000BFBD467E
:101460005DF8047B704700BF08000020F0010020F9
:1014700080B400AF034B1B681846BD465DF8047B83
:10148000704700BFF001002080B584B000AF7860E5
:10149000FFF7EEFFB8607B68FB60FB68B3F1FF3FCE
:1014A00005D0094B1B781A46FB681344FB6000BF4C
:1014B000FFF7DEFF0246BB68D31AFA689A42F7D8F4
:1014C00000BF1037BD4680BD0800002080B485B045
:1014D00000AF78607B6803F00703FB600C4BDB68B0
:1014E000BB60BA684FF6FF031340BB60FB681A028B
:1014F000BB68134343F0BF6343F40033BB60044A4B
:10150000BB68D36000BF1437BD465DF8047B7047ED
:1015100000ED00E080B400AF044BDB681B0A03F071
:1015200007031846BD465DF8047B704700ED00E0F8
:1015300080B483B000AF03463960FB7197F9073080
:10154000002B0ADB3B68DAB20C4997F9073012012D
:10155000D2B20B4483F800230AE03B68DAB20849B0
:10156000FB7903F00F03043B1201D2B20B441A764D
:1015700000BF0C37BD465DF8047B704700E100E01A
:1015800000ED00E080B489B000AFF860B9607A6027
:10159000FB6803F00703FB61FB69C3F10703042B3E
:1015A00028BF0423BB61FB690433062B02D9FB6906
:1015B000033B00E000237B614FF0FF32BB6902FA7E
:1015C00003F3DA43BB681A407B699A404FF0FF315E
:1015D0007B6901FA03F3D9437B680B401343184638
:1015E0002437BD465DF8047B7047000080B582B0AB
:1015F00000AF78607B68013BB3F1807F01D30123AA
:101600000FE00A4A7B68013B53600F214FF0FF3027
:10161000FFF78EFF054B00229A60044B07221A60E9
:10162000002318460837BD4680BD00BF10E000E02B
:1016300080B582B000AF78607868FFF747FF00BFE1
:101640000837BD4680BD80B586B000AF0346B9609F
:101650007A60FB7300237B61FFF75CFF78617A6837
:10166000B9687869FFF78EFF024697F90F30114687
:101670001846FFF75DFF00BF1837BD4680BD80B537
:1016800082B000AF78607868FFF7B0FF0346184675
:101690000837BD4680BD80B582B000AF78607B68FA
:1016A000002B01D101230EE07B685B79DBB2002BBC
:1016B00005D17B6800221A717868FFF7B3FC7B685C
:1016C00001225A71002318460837BD4680BD80B5F7
:1016D00082B000AF78607B68002B01D1012322E04B
:1016E0007B685B79DBB2022B01D102231BE07B68B4
:1016F00002225A717B681B689A687B681B6842F0FB
:1017000001029A607B681B681B797B681B6800225A
:101710001A717868FFF7A8FC7B6800225A717B6811
:1017200000221A71002318460837BD4680BD80B4D8
:1017300087B000AFF860B9607A6000233B61FB6856
:1017400002225A7100237B610AE07B699B00BA6820
:101750001A44FB681B6812681A607B6901337B615D
:101760007A697B689A42F0D3FB681B681B683B610F
:10177000FB6801225A713B6918461C37BD465DF86B
:10178000047B704780B586B000AFF860B960C7E9E8
:1017900000230123FB75234B1B7E012B01D1022368
:1017A0003BE0204B01221A764CF2503000F070F8EA
:1017B0000346FB75FB7D002B2BD1FB68002B05D16D
:1017C0003B781946B86800F019F916E0FB68012B60
:1017D00005D13B881946B86800F0ECF80DE0FB68CD
:1017E000022B05D13B681946B86800F0C1F804E047
:1017F000D7E90023B86800F08BF84CF2503000F0C5
:1018000047F80346FB75084B1B69074A23F00103A1
:101810001361044B00221A76FB7D18461837BD462B
:1018200080BD00BFF4010020003C024080B483B0C2
:1018300000AF0023FB710B4B1B69002B0BDA094B2C
:10184000094A5A60074B094A5A60064B1B69002B2C
:1018500001DA0123FB71FB7918460C37BD465DF8B0
:10186000047B7047003C024023016745AB89EFCD04
:1018700080B400AF054B1B69044A43F00043136179
:1018800000231846BD465DF8047B7047003C0240CB
:1018900080B584B000AF78600023FB601A4B002253
:1018A000DA61FFF7E5FDF86010E07B68B3F1FF3F18
:1018B0000CD07B68002B07D0FFF7DAFD0246FB68EF
:1018C000D31A7A689A4201D2032319E00F4BDB68DE
:1018D00003F48033002BE8D10C4BDB6803F00103E9
:1018E000002B02D0094B0122DA60084BDB6803F0C1
:1018F000F203002B03D000F0A3F8012300E0002343
:1019000018461037BD4680BDF4010020003C02405F
:1019100090B484B000AFF860C7E90023134B1B6993
:10192000124A23F440731361104B1B690F4A43F4AE
:10193000407313610D4B1B690C4A43F001031361A3
:10194000FB683A681A60BFF36F8FD7E900124FF057
:1019500000034FF0000413000024FA6804321360FF
:1019600000BF1037BD4690BC704700BF003C02402E
:1019700080B483B000AF786039600D4B1B690C4AAE
:1019800023F4407313610A4B1B69094A43F4007343
:101990001361074B1B69064A43F0010313617B681F
:1019A0003A681A6000BF0C37BD465DF8047B70478B
:1019B000003C024080B483B000AF78600B467B806F
:1019C0000D4B1B690C4A23F4407313610A4B1B69CE
:1019D000094A43F480731361074B1B69064A43F0BD
:1019E000010313617B687A881A8000BF0C37BD46FB
:1019F0005DF8047B704700BF003C024080B483B0B8
:101A000000AF78600B46FB700C4B1B690B4A23F44C
:101A100040731361094B094A1B691361074B1B692A
:101A2000064A43F0010313617B68FA781A7000BF1D
:101A30000C37BD465DF8047B704700BF003C024098
:101A400080B400AF274BDB6803F01003002B08D0F5
:101A5000254BDB6943F01003234AD361214B10224D
:101A6000DA60204BDB6803F02003002B08D01E4B0C
:101A7000DB6943F008031C4AD3611A4B2022DA6069
:101A8000184BDB6803F04003002B08D0164BDB69D2
:101A900043F00403144AD361124B4022DA60114B25
:101AA000DB6803F08003002B08D00F4BDB6943F0A9
:101AB00002030D4AD3610B4B8022DA60094BDB68CD
:101AC00003F00203002B08D0074BDB6943F020032F
:101AD000054AD361034B0222DA6000BFBD465DF8C0
:101AE000047B7047003C0240F401002080B584B0C4
:101AF00000AF786039600123FB730023BB60314B7A
:101B00001B7E012B01D1022358E02E4B01221A76B5
:101B10004CF25030FFF7BCFE0346FB73FB7B002BFF
:101B200048D13B684FF0FF321A607B681B68012B7D
:101B300015D17B681B69DAB27B685B681946104671
:101B400000F044F84CF25030FFF7A2FE0346FB735E
:101B50001D4B1B691C4A23F00403136128E07B68BA
:101B60009B68BB601CE07B681B69DBB21946B868E8
:101B700000F050F84CF25030FFF78AFE0346FB733A
:101B8000114B1B69104A23F0FA031361FB7B002BF6
:101B900003D03B68BA681A600AE0BB680133BB60D7
:101BA0007B68DA687B689B681344BA689A42DAD328
:101BB00000F078F8034B00221A76FB7B18461037AA
:101BC000BD4680BDF4010020003C024080B483B0DB
:101BD00000AF03463960FB710D4B1B690C4A23F4BF
:101BE000407313610A4B1B69094A43F004031361F4
:101BF000074B1A69FB791B021343054A43F48033F0
:101C0000136100BF0C37BD465DF8047B704700BF11
:101C1000003C024080B485B000AF78600B46FB709A
:101C20000023FB60FB78002B02D10023FB6010E057
:101C3000FB78012B03D14FF48073FB6009E0FB7844
:101C4000022B03D14FF40073FB6002E04FF44073AA
:101C5000FB60134B1B69124A23F440731361104B52
:101C60001A690F49FB6813430B610D4B1B690C4A42
:101C700023F0F80313610A4B1A697B68DB001343F6
:101C8000074A43F002031361054B1B69044A43F4FE
:101C90008033136100BF1437BD465DF8047B704785
:101CA000003C024080B400AF204B1B6803F400737B
:101CB000002B17D01D4B1B681C4A23F400731360C4
:101CC0001A4B1B68194A43F400631360174B1B68D7
:101CD000164A23F400631360144B1B68134A43F441
:101CE00000731360114B1B6803F48063002B17D043
:101CF0000E4B1B680D4A23F4806313600B4B1B686B
:101D00000A4A43F480531360084B1B68074A23F4C4
:101D100080531360054B1B68044A43F480631360CF
:101D200000BFBD465DF8047B704700BF003C024029
:101D300080B489B000AF7860396000237B610023F4
:101D40003B610023BB610023FB616BE10122FB6966
:101D500002FA03F37B613B681B687A6913403B61BD
:101D60003A697B699A4240F05A813B685B68012B73
:101D70000BD03B685B68022B07D03B685B68112B7C
:101D800003D03B685B68122B30D17B689B68BB61DA
:101D9000FB695B00032202FA03F3DB43BA691340D9
:101DA000BB613B68DA68FB695B0002FA03F3BA695E
:101DB0001343BB617B68BA699A607B685B68BB61EF
:101DC0000122FB6902FA03F3DB43BA691340BB61EA
:101DD0003B685B681B0903F00102FB6902FA03F32D
:101DE000BA691343BB617B68BA695A607B68DB6878
:101DF000BB61FB695B00032202FA03F3DB43BA69B0
:101E00001340BB613B689A68FB695B0002FA03F30D
:101E1000BA691343BB617B68BA69DA603B685B6887
:101E2000022B03D03B685B68122B23D1FB69DA08D5
:101E30007B68083253F82230BB61FB6903F007036B
:101E40009B000F2202FA03F3DB43BA691340BB6124
:101E50003B681A69FB6903F007039B0002FA03F36E
:101E6000BA691343BB61FB69DA087B680832B96958
:101E700043F822107B681B68BB61FB695B0003228F
:101E800002FA03F3DB43BA691340BB613B685B684A
:101E900003F00302FB695B0002FA03F3BA69134320
:101EA000BB617B68BA691A603B685B6803F080536A
:101EB000002B00F0B4800023FB605F4B5B6C5E4A3C
:101EC00043F4804353645C4B5B6C03F48043FB60DE
:101ED000FB685A4AFB699B08023352F82330BB6106
:101EE000FB6903F003039B000F2202FA03F3DB43B9
:101EF000BA691340BB617B68514A93422BD07B681F
:101F0000504A934225D07B684F4A93421FD07B684A
:101F10004E4A934219D07B684D4A934213D07B6856
:101F20004C4A93420DD07B684B4A934207D07B6862
:101F30004A4A934201D107230EE008230CE006230E
:101F40000AE0052308E0042306E0032304E002235B
:101F500002E0012300E00023FA6902F0030292008C
:101F60009340BA691343BB613449FB699B08023350
:101F7000BA6941F823203A4B1B68BB613B69DB43DC
:101F8000BA691340BB613B685B6803F48033002B84
:101F900003D0BA693B691343BB61314ABB69136023
:101FA0002F4B5B68BB613B69DB43BA691340BB6184
:101FB0003B685B6803F40033002B03D0BA693B69CC
:101FC0001343BB61264ABB695360254B9B68BB61C9
:101FD0003B69DB43BA691340BB613B685B6803F450
:101FE0008013002B03D0BA693B691343BB611C4AC1
:101FF000BB6993601A4BDB68BB613B69DB43BA6921
:102000001340BB613B685B6803F40013002B03D0F3
:10201000BA693B691343BB61114ABB69D360FB6971
:102020000133FB61FB690F2B7FF690AE00BF2437B5
:10203000BD465DF8047B704700380240003801401F
:10204000000002400004024000080240000C024070
:10205000001002400014024000180240001C024020
:10206000003C014080B487B000AF78603960002345
:102070003B610023FB600023BB6000237B61CDE05C
:1020800001227B6902FA03F33B613A683B69134022
:10209000FB60FA683B699A4240F0BD80644A7B6904
:1020A0009B08023352F82330BB607B6903F00303C3
:1020B0009B000F2202FA03F3BA681340BB607B68EF
:1020C0005C4A93422BD07B685B4A934225D07B6865
:1020D0005A4A93421FD07B68594A934219D07B6871
:1020E000584A934213D07B68574A93420DD07B687D
:1020F000564A934207D07B68554A934201D1072341
:102100000EE008230CE006230AE0052308E0042380
:1021100006E0032304E0022302E0012300E00023A1
:102120007A6902F0030292009340BA689A4232D16F
:10213000484B1A68FB68DB43464913400B60454B2C
:102140005A68FB68DB43434913404B60414B9A6834
:10215000FB68DB433F4913408B603E4BDA68FB680A
:10216000DB433C491340CB607B6903F003039B00D6
:102170000F2202FA03F3BB602D4A7B699B080233EE
:1021800052F82310BB68DA4329487B699B080A4050
:10219000023340F823207B681A687B695B000321C7
:1021A00001FA03F3DB431A407B681A607B69DA08A3
:1021B0007B68083253F822107B6903F007039B0009
:1021C0000F2202FA03F3DB437A69D20819407B68D5
:1021D000083243F822107B68DA687B695B000321D0
:1021E00001FA03F3DB431A407B68DA607B685A68C4
:1021F00001217B6901FA03F3DB431A407B685A60D3
:102200007B689A687B695B00032101FA03F3DB4377
:102210001A407B689A607B6901337B617B690F2B75
:102220007FF62EAF00BF1C37BD465DF8047B7047BC
:102230000038014000000240000402400008024053
:10224000000C02400010024000140240001802403E
:10225000001C0240003C014080B485B000AF7860B3
:102260000B467B807B681A697B881340002B02D069
:102270000123FB7301E00023FB73FB7B184614373B
:10228000BD465DF8047B704780B483B000AF7860D2
:102290000B467B8013467B707B78002B03D07A88BB
:1022A0007B689A6103E07B881A047B689A6100BFAF
:1022B0000C37BD465DF8047B704780B483B000AF37
:1022C00078600B467B807B685A697B881A407B88E4
:1022D0009A4204D17B881A047B689A6102E07A886A
:1022E0007B689A6100BF0C37BD465DF8047B704780
:1022F00080B586B000AF78607B68002B01D10123E8
:102300005BE27B681B6803F00103002B75D0A34BD5
:102310009B6803F00C03042B0CD0A04B9B6803F0CC
:102320000C03082B12D19D4B5B6803F48003B3F5BB
:10233000800F0BD1994B1B6803F40033002B5BD04B
:102340007B685B68002B57D1012336E27B685B68B2
:10235000B3F5803F06D1914B1B68904A43F480331C
:1023600013601DE07B685B68B3F5A02F0CD18B4B2D
:102370001B688A4A43F480231360884B1B68874A92
:1023800043F4803313600BE0844B1B68834A23F4CF
:1023900080331360814B1B68804A23F480231360D1
:1023A0007B685B68002B13D0FFF762F8386108E0A8
:1023B000FFF75EF802463B69D31A642B01D9032369
:1023C000FBE1764B1B6803F40033002BF0D014E0E4
:1023D000FFF74EF8386108E0FFF74AF802463B691C
:1023E000D31A642B01D90323E7E16C4B1B6803F478
:1023F0000033002BF0D100E000BF7B681B6803F0C6
:102400000203002B63D0654B9B6803F00C03002B89
:102410000BD0624B9B6803F00C03082B1CD15F4B65
:102420005B6803F48003002B16D15C4B1B6803F040
:102430000203002B05D07B68DB68012B01D0012350
:10244000BBE1564B1B6823F0F8027B681B69DB007D
:10245000524913430B603AE07B68DB68002B20D0C5
:102460004F4B01221A60FFF703F8386108E0FEF7CE
:10247000FFFF02463B69D31A022B01D903239CE1DB
:10248000464B1B6803F00203002BF0D0434B1B6844
:1024900023F0F8027B681B69DB00404913430B60A3
:1024A00015E03F4B00221A60FEF7E2FF386108E0BA
:1024B000FEF7DEFF02463B69D31A022B01D9032344
:1024C0007BE1364B1B6803F00203002BF0D17B68E5
:1024D0001B6803F00803002B30D07B685B69002B7E
:1024E00016D0304B01221A60FEF7C2FF386108E0B7
:1024F000FEF7BEFF02463B69D31A022B01D9032324
:102500005BE1264B5B6F03F00203002BF0D015E07C
:10251000244B00221A60FEF7ABFF386108E0FEF79B
:10252000A7FF02463B69D31A022B01D9032344E1DA
:102530001A4B5B6F03F00203002BF0D17B681B6822
:1025400003F00403002B00F0A0800023FB75134B65
:102550001B6C03F08053002B0FD10023BB600F4B8B
:102560001B6C0E4A43F0805313640C4B1B6C03F03E
:102570008053BB60BB680123FB750B4B1B6803F4E6
:102580008073002B21D1084B1B68074A43F48073EA
:102590001360FEF76DFF386111E000BF00380240A4
:1025A00000004742800E474200700040FEF760FF87
:1025B00002463B69D31A022B01D90323FDE0814B6C
:1025C0001B6803F48073002BF0D07B689B68012BA1
:1025D00006D17D4B1B6F7C4A43F0010313671CE05F
:1025E0007B689B68052B0CD1774B1B6F764A43F0B9
:1025F00004031367744B1B6F734A43F001031367A3
:102600000BE0714B1B6F704A23F0010313676E4B95
:102610001B6F6D4A23F0040313677B689B68002BD4
:1026200015D0FEF725FF38610AE0FEF721FF0246CC
:102630003B69D31A41F28832934201D90323BCE0AB
:10264000614B1B6F03F00203002BEED014E0FEF78A
:102650000FFF38610AE0FEF70BFF02463B69D31A11
:1026600041F28832934201D90323A6E0564B1B6FF7
:1026700003F00203002BEED1FB7D012B05D1524B61
:102680001B6C514A23F0805313647B689B69002BB9
:1026900000F092804C4B9B6803F00C03082B5CD03D
:1026A0007B689B69022B41D1484B00221A60FEF7E0
:1026B000DFFE386108E0FEF7DBFE02463B69D31A15
:1026C000022B01D9032378E03F4B1B6803F0007312
:1026D000002BF0D17B68DA697B681B6A1A437B6840
:1026E0005B6A9B011A437B689B6A5B08013B1B0486
:1026F0001A437B68DB6A1B06334913434B60334B39
:1027000001221A60FEF7B4FE386108E0FEF7B0FE61
:1027100002463B69D31A022B01D903234DE02A4B11
:102720001B6803F00073002BF0D045E0274B00221C
:102730001A60FEF79DFE386108E0FEF799FE02463A
:102740003B69D31A022B01D9032336E01E4B1B68C9
:1027500003F00073002BF0D12EE07B689B69012B06
:1027600001D1012329E0184B5B68FB60FB6803F48F
:1027700080027B68DB699A421CD1FB6803F03F0250
:102780007B681B6A9A4215D1FA6847F6C0731340FA
:102790007A68526A93420DD1FB6803F440327B6839
:1027A0009B6A9A4206D1FB6803F070627B68DB6A21
:1027B0009A4201D0012300E0002318461837BD4695
:1027C00080BD00BF007000400038024060004742FA
:1027D00080B584B000AF786039607B68002B01D190
:1027E0000123CCE0684B1B6803F00F033A689A4260
:1027F0000CD9654B3A68D2B21A70634B1B6803F070
:102800000F033A689A4201D00123B8E07B681B6845
:1028100003F00203002B20D07B681B6803F0040345
:10282000002B05D0594B9B68584A43F4E053936002
:102830007B681B6803F00803002B05D0534B9B6893
:10284000524A43F460439360504B9B6823F0F0027C
:102850007B689B684D4913438B607B681B6803F062
:102860000103002B44D07B685B68012B07D1474BE9
:102870001B6803F40033002B19D101237FE07B6830
:102880005B68022B03D07B685B68032B07D13F4B4F
:102890001B6803F00073002B09D101236FE03B4B51
:1028A0001B6803F00203002B01D1012367E0374BC3
:1028B0009B6823F003027B685B68344913438B6099
:1028C000FEF7D6FDF8600AE0FEF7D2FD0246FB688F
:1028D000D31A41F28832934201D903234FE02B4BA4
:1028E0009B6803F00C027B685B689B009A42EBD10B
:1028F000254B1B6803F00F033A689A420CD2224B17
:102900003A68D2B21A70204B1B6803F00F033A6882
:102910009A4201D0012332E07B681B6803F0040374
:10292000002B08D0194B9B6823F4E0527B68DB68CE
:10293000164913438B607B681B6803F00803002B68
:1029400009D0124B9B6823F460427B681B69DB0053
:102950000E4913438B6000F021F801460B4B9B6836
:102960001B0903F00F030A4AD35C21FA03F3094A57
:102970001360094B1B681846FEF736FD0023184606
:102980001037BD4680BD00BF003C02400038024009
:10299000E04200080000002004000020F0B585B0EF
:1029A00000AF00237B600023FB6000233B6000231B
:1029B000BB60634B9B6803F00C03042B07D0082B10
:1029C00008D0002B40F0B4805E4BBB60B3E05E4BA0
:1029D000BB60B0E05A4B5B6803F03F037B60584B31
:1029E0005B6803F48003002B4AD0554B5B689B095E
:1029F0004FF0000440F2FF114FF0000203EA01051E
:102A000004EA0206294632464FF000034FF0000464
:102A1000540144EAD1644B0119462246491B62EB3A
:102A200006024FF000034FF00004940144EA916461
:102A30008B015B1A64EB02044FF000014FF00002BF
:102A4000E20042EA5372D9000B4614465B1944EB8C
:102A500006044FF000014FF00002620242EAD35236
:102A600059020B461446184621467B684FF0000475
:102A70001A462346FDF704FC03460C46FB6049E07A
:102A80002F4B5B689B094FF0000440F2FF114FF0A1
:102A9000000203EA010504EA0206294632464FF025
:102AA00000034FF00004540144EAD1644B0119467D
:102AB0002246491B62EB06024FF000034FF0000470
:102AC000940144EA91648B015B1A64EB02044FF0B9
:102AD00000014FF00002E20042EA5372D9000B46B7
:102AE00014465B1944EB06044FF000014FF000025E
:102AF000A20242EA935299020B4614461846214616
:102B00007B684FF000041A462346FDF7B9FB0346E5
:102B10000C46FB600A4B5B681B0C03F0030301339C
:102B20005B003B60FA683B68B2FBF3F3BB6002E01A
:102B3000044BBB6000BFBB6818461437BD46F0BDF0
:102B4000003802400024F40000127A0080B400AF84
:102B5000034B1B681846BD465DF8047B704700BFF9
:102B60000000002080B500AFFFF7F0FF0146054BE5
:102B70009B689B0A03F00703034AD35C21FA03F323
:102B8000184680BD00380240F042000880B500AF12
:102B9000FFF7DCFF0146054B9B685B0B03F0070367
:102BA000034AD35C21FA03F3184680BD0038024083
:102BB000F042000880B582B000AFFEF759FC7860A3
:102BC0005D4B1B685C4A43F00103136008E0FEF7AD
:102BD0004FFC02467B68D31A022B01D90323A7E0DE
:102BE000554B1B6803F00203002BF0D0524B1B68BF
:102BF000514A43F080031360FEF73AFC78604E4B75
:102C000000229A600AE0FEF733FC02467B68D31A82
:102C100041F28832934201D9032389E0464B9B68F5
:102C200003F00C03002BEED1FEF722FC7860424B40
:102C30001B68414A23F45023136008E0FEF718FC98
:102C400002467B68D31A642B01D9032370E03A4B08
:102C50001B6803F40033002BF0D1FEF709FC786009
:102C6000354B1B68344A23F08073136008E0FEF78D
:102C7000FFFB02467B68D31A022B01D9032357E0DE
:102C80002D4B1B6803F00073002BF0D1FEF7F0FB17
:102C90007860294B1B68284A23F08063136008E0A2
:102CA000FEF7E6FB02467B68D31A022B01D9032309
:102CB0003EE0214B1B6803F00063002BF0D11E4B5C
:102CC0001E4A5A601C4B1E4AC3F884201A4BDB680C
:102CD000194A23F4F853D360174BDB68164A23F4E0
:102CE0000053D360144BDB68134A43F41F03D360D3
:102CF000114BDB68104A43F40013D3600E4B5B6F3B
:102D00000D4A23F0010353670B4B5B6F0A4A43F0F4
:102D1000807353670B4B0C4A1A600C4B1B681846A8
:102D2000FEF762FB0346002B01D0012300E00023E5
:102D300018460837BD4680BD0038024010300004F8
:102D400000300020000000200024F40004000020D7
:102D500080B582B000AF78607B68002B01D1012381
:102D60003FE07B6893F83930DBB2002B06D17B68FB
:102D7000002283F838207868FEF790F97B682422D7
:102D800083F839207B681B68DA687B681B6822F44B
:102D90000052DA60786800F0DDF97B681B681A6918
:102DA0007B681B6822F490421A617B681B685A6931
:102DB0007B681B6822F02A025A617B681B68DA680C
:102DC0007B681B6842F40052DA607B680022DA6399
:102DD0007B68202283F839207B68202283F83A2000
:102DE000002318460837BD4680BD80B582B000AFCD
:102DF00078607B68002B01D101231EE07B682422D0
:102E000083F839207B681B68DA687B681B6822F4CA
:102E10000052DA607868FEF7BFF97B680022DA6357
:102E20007B68002283F839207B68002283F83A20EF
:102E30007B68002283F83820002318460837BD46F7
:102E400080BD80B588B002AFF860B9603B601346C2
:102E5000FB8000237B61FB6893F83930DBB2202BC9
:102E600040F08380BB68002B02D0FB88002B01D18F
:102E700001237BE0FB6893F83830012B01D102235A
:102E800074E0FB68012283F83820FB680022DA63D3
:102E9000FB68212283F83920FEF7EAFA7861FB68A3
:102EA000FA889A84FB68FA88DA84FB68002283F83F
:102EB000382042E0FB68DB8C9BB2013B9AB2FB6896
:102EC000DA84FB689B68B3F5805F22D13B6800938E
:102ED0007B6900228021F86800F0F2F80346002B9D
:102EE00001D0032342E0BB683B613B691B881A4663
:102EF000FB681B68C2F308025A60FB681B69002B61
:102F000003D1BB680233BB6017E0BB680133BB6011
:102F100013E03B6800937B6900228021F86800F091
:102F2000CFF80346002B01D003231FE0BB685A1CD7
:102F3000BA601A78FB681B685A60FB68DB8C9BB22E
:102F4000002BB7D13B6800937B6900224021F868D1
:102F500000F0B6F80346002B01D0032306E0FB681F
:102F6000202283F83920002300E002231846183776
:102F7000BD4680BD80B588B002AFF860B9603B60E7
:102F80001346FB8000237B61FB6893F83A30DBB289
:102F9000202B40F09080BB68002B02D0FB88002BD8
:102FA00001D1012388E0FB6893F83830012B01D16F
:102FB000022381E0FB68012283F83820FB680022AD
:102FC000DA63FB68222283F83A20FEF751FA78612F
:102FD000FB68FA889A85FB68FA88DA85FB68002224
:102FE00083F838205CE0FB68DB8D9BB2013B9AB232
:102FF000FB68DA85FB689B68B3F5805F2BD13B6883
:1030000000937B6900222021F86800F059F80346FC
:10301000002B01D003234FE0BB683B61FB681B69B9
:10302000002B0CD1FB681B685B689BB2C3F30803E1
:103030009AB23B691A80BB680233BB6030E0FB6820
:103040001B685B689BB2DBB29AB23B691A80BB68B3
:103050000133BB6024E03B6800937B6900222021A0
:10306000F86800F02DF80346002B01D0032323E07D
:10307000FB681B69002B08D1FB681B685968BB689B
:103080005A1CBA60CAB21A700AE0FB681B685B6817
:10309000DAB2BB68591CB96002F07F02D2B21A7072
:1030A000FB68DB8D9BB2002B9DD1FB68202283F84F
:1030B0003A20002300E0022318461837BD4680BDA1
:1030C00080B584B000AFF860B9603B601346FB7117
:1030D0002CE0BB69B3F1FF3F28D0BB69002B07D0C0
:1030E000FEF7C6F902463B68D31ABA699A421DD266
:1030F000FB681B68DA68FB681B6822F4D072DA6030
:10310000FB681B685A69FB681B6822F001025A6160
:10311000FB68202283F83920FB68202283F83A20BC
:10312000FB68002283F8382003230FE0FB681B684C
:103130001A68BB681340BA689A420CBF0123002387
:10314000DBB21A46FB799A42C3D0002318461037E7
:10315000BD4680BD2DE9F04F85B000AF78607B683B
:103160001B681B6923F440517B68DA687B681B6825
:103170000A431A617B689A687B681B691A437B68FB
:103180005B691A437B68DB691343FB607B681B68E0
:10319000DB6823F4164323F00C037A681268F9689D
:1031A0000B43D3607B681B685B6923F440717B68C9
:1031B0009A697B681B680A435A617B68DB69B3F5CF
:1031C000004F40F08B817B681B68C14A934205D059
:1031D0007B681B68BF4A934240F0BD80FFF7D6FC76
:1031E000B860BB681D464FF00006A846B14618EB14
:1031F000080349EB09049846A14618EB050849EB7A
:1032000006094FF000014FF000024FEAC90242EAFE
:1032100058724FEAC8018846914618EB050049EB01
:1032200006017B685B681D464FF000066B1946EB94
:1032300006041A462346FDF723F803460C461A46B1
:10324000A54BA3FB02235B094FEA0318BB681D468D
:103250004FF00006A946B24619EB09034AEB0A04EF
:103260009946A24619EB05094AEB060A4FF0000100
:103270004FF000024FEACA0242EA59724FEAC9010E
:103280008946924619EB05004AEB06017B685B68AC
:103290001D464FF000066B1946EB06041A462346FE
:1032A000FCF7EEFF03460C461A468B4BA3FB0213BA
:1032B0005B09642101FB03F3D31ADB003233864A36
:1032C000A2FB03235B095B0003F4F8739844BB681B
:1032D0001D464FF00006A946B24619EB09034AEB1A
:1032E0000A049946A24619EB05094AEB060A4FF073
:1032F00000014FF000024FEACA0242EA59724FEA57
:10330000C9018946924619EB05004AEB06017B6824
:103310005B681D464FF000066B1946EB06041A4623
:103320002346FCF7ADFF03460C461A466A4BA3FB47
:1033300002135B09642101FB03F3D31ADB00323370
:10334000654AA2FB03235B0903F007027B681B6845
:1033500042449A606FE2FFF705FCB860BB681D4607
:103360004FF00006A846B14618EB080349EB0904E4
:103370009846A14618EB050849EB06094FF00001F5
:103380004FF000024FEAC90242EA58724FEAC80100
:103390008846914618EB050049EB06017B685B689F
:1033A0001D464FF000066B1946EB06041A462346ED
:1033B000FCF766FF03460C461A46474BA3FB022365
:1033C0005B094FEA0318BB681D464FF00006A9468B
:1033D000B24619EB09034AEB0A049946A24619EBD7
:1033E00005094AEB060A4FF000014FF000024FEAD0
:1033F000CA0242EA59724FEAC9018946924619EB5C
:1034000005004AEB06017B685B681D464FF000062D
:103410006B1946EB06041A462346FCF731FF0346B8
:103420000C461A462C4BA3FB02135B09642101FBDB
:1034300003F3D31ADB003233274AA2FB03235B09D1
:103440005B0003F4F8739844BB681D464FF0000618
:10345000A946B24619EB09034AEB0A049946A2466B
:1034600019EB05094AEB060A4FF000014FF0000284
:103470004FEACA0242EA59724FEAC90189469246A6
:1034800019EB05004AEB06017B685B681D464FF0AF
:1034900000066B1946EB06041A462346FCF7F0FEBD
:1034A00003460C461A460C4BA3FB02135B0964212E
:1034B00001FB03F3D31ADB003233074AA2FB0323D9
:1034C0005B0903F007027B681B6842449A60B2E123
:1034D00000100140001401401F85EB517B681B6800
:1034E000D74A934205D07B681B68D64A934240F086
:1034F000D180FFF74BFBB860BB689A464FF0000BDA
:10350000D046D94618EB080349EB09049846A14672
:1035100018EB0A0849EB0B094FF000014FF00002CD
:103520004FEAC90242EA58724FEAC80188469146FA
:103530001AEB08054BEB09067B685B6819464FF0F0
:1035400000024FF000034FF00004940044EA91742D
:103550008B001A46234628463146FCF791FE034667
:103560000C461A46B84BA3FB02235B094FEA03182B
:10357000BB689B464FF0000CD946E24619EB0903A5
:103580004AEB0A049946A24619EB0B094AEB0C0ACE
:103590004FF000014FF000024FEACA0242EA5972AE
:1035A0004FEAC901894692461BEB09054CEB0A0616
:1035B0007B685B6819464FF000024FF000034FF044
:1035C0000004940044EA91748B001A46234628466E
:1035D0003146FCF755FE03460C461A469A4BA3FBB0
:1035E00002135B09642101FB03F3D31A1B0132337D
:1035F000954AA2FB03235B0903F0F0039844BB68E0
:103600009B464FF0000CD946E24619EB09034AEB02
:103610000A049946A24619EB0B094AEB0C0A4FF033
:1036200000014FF000024FEACA0242EA59724FEA23
:10363000C901894692461BEB09054CEB0A067B68DB
:103640005B6819464FF000024FF000034FF0000492
:10365000940044EA91748B001A462346284631466A
:10366000FCF70EFE03460C461A46774BA3FB0213EB
:103670005B09642101FB03F3D31A1B013233724A45
:10368000A2FB03235B0903F00F027B681B68424423
:103690009A60D0E0FFF766FAB860BB689A464FF0D0
:1036A000000BD046D94618EB080349EB09049846AD
:1036B000A14618EB0A0849EB0B094FF000014FF047
:1036C00000024FEAC90242EA58724FEAC80188462E
:1036D00091461AEB08054BEB09067B685B681946B7
:1036E0004FF000024FF000034FF00004940044EA52
:1036F00091748B001A46234628463146FCF7C0FDDC
:1037000003460C461A46504BA3FB02235B094FEAC3
:103710000318BB689B464FF0000CD946E24619EBF4
:1037200009034AEB0A049946A24619EB0B094AEB36
:103730000C0A4FF000014FF000024FEACA0242EAC1
:1037400059724FEAC901894692461BEB09054CEBB9
:103750000A067B685B6819464FF000024FF00003D1
:103760004FF00004940044EA91748B001A462346FB
:1037700028463146FCF784FD03460C461A46324B78
:10378000A3FB02135B09642101FB03F3D31A1B01A2
:1037900032332D4AA2FB03235B0903F0F003984464
:1037A000BB689B464FF0000CD946E24619EB090373
:1037B0004AEB0A049946A24619EB0B094AEB0C0A9C
:1037C0004FF000014FF000024FEACA0242EA59727C
:1037D0004FEAC901894692461BEB09054CEB0A06E4
:1037E0007B685B6819464FF000024FF000034FF012
:1037F0000004940044EA91748B001A46234628463C
:103800003146FCF73DFD03460C461A460E4BA3FB22
:1038100002135B09642101FB03F3D31A1B0132334A
:10382000094AA2FB03235B0903F00F027B681B68B4
:1038300042449A60FFE700BF1437BD46BDE8F08FF1
:1038400000100140001401401F85EB51014B186826
:10385000704700BF0C00002070B50D4E0D4CA41B2E
:10386000A4100025A54209D10B4E0C4C00F026FCFB
:10387000A41BA4100025A54205D170BD56F8253023
:1038800098470135EEE756F8253098470135F2E7BD
:103890003443000834430008344300083843000828
:1038A00002440346934200D1704703F8011BF9E735
:1038B00000B59BB0009104916FF000410591029119
:1038C00005490391694600F06DF8009B00221A70CB
:1038D0001BB05DF804FB00BF0802FFFF13460A4659
:1038E000014602480068FFF7E3BF00BF0C0000205C
:1038F0002DE9F0478E689E4282460C4690469946D6
:1039000037D88A8912F4906F31D0256809696F1A07
:103910006569022305EB450595FBF3F509F1010304
:103920003B449D4238BF1D46530530D5294600F023
:103930002BFB064650B90C23CAF80030A38943F08C
:103940004003A3814FF0FF30BDE8F0873A4621697C
:1039500000F0A8FAA38923F4906343F08003A381C5
:10396000266165613E44ED1B2660A5604E464E45CE
:1039700000D94E4632464146206800F09EFAA368C0
:103980009B1BA36023681E4426600020DCE72A46B8
:1039900000F054FB06460028E2D12169504600F0B1
:1039A000A5FAC8E72DE9F04F1D468B891F069DB08B
:1039B00080460C4616460FD50B696BB9402100F0C6
:1039C000E3FA2060206128B90C23C8F800304FF0DA
:1039D000FF30C8E0402363610023099320238DF862
:1039E000293030238DF82A3003954FF0010B3746EC
:1039F0003D4615F8013B0BB1252B3ED1B7EB060A2E
:103A00000BD05346324621464046FFF771FF013046
:103A100000F0A480099B534409933B78002B00F0ED
:103A20009D8000234FF0FF32CDE9052304930793D7
:103A30008DF853301A932F46052217F8011B504872
:103A4000FCF7CEFB049BD0B9D90644BF20228DF8E9
:103A500053201A0744BF2B228DF853202A782A2A94
:103A600015D0079A2F4600200A25394611F8013B48
:103A7000303B092B4DD9B8B10FE02F46B8E7404A8B
:103A8000801A0BFA00F0184304903D46D3E7039ADE
:103A9000111D12680391002A01DB079204E05242D3
:103AA00043F00203079204933B782E2B0CD17B78D2
:103AB0002A2B33D1039B1A1D1B680392002BB8BF1E
:103AC0004FF0FF33023705932E4D397803222846F5
:103AD000FCF786FB38B14023401B03FA00F0049B3F
:103AE000034301370493397827488DF828100622BC
:103AF0007E1CFCF775FB002838D0244B13BB039BBE
:103B0000073323F0070308330393099B4B440993BE
:103B10006DE705FB023201200F46A6E700230137BF
:103B2000059319460A25384610F8012B303A092A20
:103B300003D9002BC8D00591C6E705FB012101235D
:103B40000746F0E703AB00932246114B04A9404619
:103B5000AFF30080B0F1FF3F8146D6D1A3895B0669
:103B60003FF535AF09981DB0BDE8F08F03AB00936A
:103B70002246074B04A9404600F082F8EAE700BF5E
:103B8000F8420008FE42000802430008000000005E
:103B9000F13800082DE9F04791461F468A680B6905
:103BA000DDF820809342B8BF1346C9F8003091F881
:103BB000432006460C4612B10133C9F80030236891
:103BC000990642BFD9F800300233C9F800302568A1
:103BD00015F0060507D104F1190AE368D9F80020A9
:103BE0009B1AAB4228DC94F843302268003318BF9C
:103BF000012392062DD404F1430239463046C047D2
:103C0000013020D02368E568D9F8002003F00603CE
:103C1000042B08BFAD1AA36822690CBF25EAE5751D
:103C200000259342C4BF9B1AED184FF000091A34C7
:103C30004D451AD1002008E001235246394630464E
:103C4000C047013003D14FF0FF30BDE8F0870135A8
:103C5000C3E7E1185A1C302081F84300224494F84D
:103C6000451082F843100233C5E701232246394646
:103C70003046C0470130E6D009F10109D8E700001D
:103C80002DE9F04301F1430C0C46097E85B06E2905
:103C90001746064698460C9A00F0B38022D863294E
:103CA00036D00AD8002900F0B980582900F0838066
:103CB00004F1420584F8421032E0642901D06929F8
:103CC000F6D120681368050603F104012AD51B68A4
:103CD0001160002B03DA2D225B4284F843206F48E9
:103CE0000A2239E0732900F09D8008D86F2920D07E
:103CF0007029DDD1236843F02003236003E0752998
:103D000017D07829D4D1782384F84530644855E019
:103D10001368191D1B68116004F1420584F84230D4
:103D200001238CE01B68116010F0400F18BF1BB21C
:103D3000CFE713682568181D1060280601D51B6899
:103D400002E06806FBD51B8854486F2914BF0A227D
:103D50000822002184F843106568A560002DC0F298
:103D60009580216821F004012160002B3DD1002DB8
:103D700040F08E806546082A0BD12368DB0708D502
:103D8000236962689A42DEBF302305F8013C05F1E1
:103D9000FF35ACEB05032361CDF800803B4603AA59
:103DA00021463046FFF7F6FE01304DD14FF0FF308F
:103DB00005B0BDE8F083394884F8451013682168E0
:103DC0001D1D1B6815600A060BD5CA0744BF41F0CC
:103DD000200121601BB9226822F0200222601022FB
:103DE000B7E74D0648BF9BB2EFE76546B3FBF2F17C
:103DF00002FB1133C35C05F8013D0B460029F5D1E8
:103E0000B9E7136825686169181D106028061B68EA
:103E100001D5196002E06A06FBD5198000232361F1
:103E20006546B9E71368191D11601D6862680021B5
:103E30002846FCF7D5F908B1401B60606368236130
:103E4000002384F84330A7E723692A4639463046E1
:103E5000C0470130AAD023689B0713D4E068039BB6
:103E60009842B8BF1846A3E701234A463946304670
:103E7000C04701309AD00135E368039A9B1AAB42E0
:103E8000F2DCEBE7002504F11909F5E7002BACD1D2
:103E9000037884F8423004F142056CE709430008D6
:103EA0001A43000810B5431E0A44914200D110BDC8
:103EB00011F8014B03F8014FF7E7884210B501EB09
:103EC000020307D8421E99420AD011F8014B02F8AA
:103ED000014FF8E78342F5D98118D21AD34200D1B5
:103EE00010BD13F8014D01F8014DF7E738B505464F
:103EF000002945D051F8043C0C1F002BB8BFE41832
:103F000000F0D2F81F4A1368104633B9636014609A
:103F10002846BDE8384000F0C8B8A3420CD9216853
:103F20006218934204BF1A685B68636004BF52184A
:103F300022600460ECE713465A680AB1A242FAD93B
:103F400019685818A0420BD12068014458188242C1
:103F50001960DDD1106852685A6001441960D7E7D2
:103F600002D90C232B60D3E7206821188A4204BFB2
:103F700011685268626004BF091821605C60C7E77D
:103F800038BD00BF9800002070B5CD1C25F003059A
:103F900008350C2D38BF0C25002D064601DBA94243
:103FA00003D90C233360002070BD00F07DF8214A56
:103FB0001468214691B9204C23681BB9304600F0A3
:103FC00063F820602946304600F05EF8431C24D197
:103FD0000C233360304600F068F8E4E70B685B1BA5
:103FE00018D40B2B0FD90B60CD50CC18304600F0F5
:103FF0005CF804F10B00231D20F00700C31AD3D096
:104000005A42E250D0E78C424B6816BF636013609F
:104010000C46EBE70C464968CCE7C41C24F00304CB
:10402000A04205D0211A304600F02EF80130CFD042
:104030002560DBE7980000209C000020F8B50746CB
:1040400014460E4621B91146BDE8F840FFF79CBF63
:1040500022B9FFF74BFF25462846F8BD00F026F8A9
:10406000A0420FD221463846FFF78EFF05460028B2
:10407000F2D031462246FFF715FF31463846FFF7AA
:1040800035FFE9E73546E7E738B5064C0023054636
:1040900008462360FDF7DCF8431C02D1236803B116
:1040A0002B6038BD140200207047704751F8043C63
:1040B000181F002BBCBF0B58C0187047F8B500BFC5
:1040C000F8BC08BC9E467047F8B500BFF8BC08BCF9
:0440D0009E46704751
:1040D400424C5F44454255475F4D53473A626F6FC8
:1040E400746C6F616465725F68616E646C655F6750
:1040F40065747665725F636D640A0000424C5F44C8
:10410400454255475F4D53473A636865636B737522
:104114006D20737563636573732021210A000000A9
:10412400424C5F44454255475F4D53473A424C5FCA
:10413400564552203A202564202523780A000000A1
:10414400424C5F44454255475F4D53473A63686567
:10415400636B73756D206661696C2021210A000010
:10416400424C5F44454255475F4D53473A626F6F37
:10417400746C6F616465725F68616E646C655F66C0
:104184006C6173685F65726173655F636D640A0077
:10419400424C5F44454255475F4D53473A696E6907
:1041A4007469616C5F736563746F72203A2025646F
:1041B40020206E6F5F6F66736563746F72733A204D
:1041C40025640A00424C5F44454255475F4D5347BE
:1041D4003A20666C6173682065726173652073743C
:1041E400617475733A202523780A0000424C5F44B9
:1041F400454255475F4D53473A626F6F746C6F6128
:104204006465725F68616E646C655F6D656D5F7730
:10421400726974655F636D640A0D0000424C5F440B
:10422400454255475F4D53473A636865636B737501
:104234006D20737563636573732021210A0D00007B
:10424400424C5F44454255475F4D53473A206D65A4
:104254006D2077726974652061646472657373207C
:104264003A202523780A0D00424C5F4445425547C5
:104274005F4D53473A2076616C6964206D656D200B
:10428400777269746520616464726573730A0D00E2
:10429400424C5F44454255475F4D53473A20696E4F
:1042A40076616C6964206D656D2077726974652030
:1042B400616464726573730A0D000000424C5F44CC
:1042C400454255475F4D53473A636865636B737561
:1042D4006D206661696C2021210A0D000000000038
:1042E40000000000010203040607080900000000A2
:1042F40001020304232D302B2000686C4C006566FA
:104304006745464700303132333435363738394122
:104314004243444546003031323334353637383938
:0843240061626364656600003C
:08432C0084BFFF7F01000000C7
:04433400B5010008C7
:0443380091010008E7
:10433C000024F40010000000010000001000002018
:10434C000000000000000000000000000000000061
:10435C000000000000000000000000000000000051
:10436C000000000000000000000000000000000041
:10437C000000000000000000000000000000000031
:10438C000000000000000000000000000000000021
:10439C000000000000000000000000000000000011
:04000005080012E9F4
:00000001FF
